:020000040001F9
:1060000058370020C1610100DB610100DD61010042
:106010000000000000000000000000000000000080
:10602000000000000000000000000000DF6101002F
:106030000000000000000000E1610100E3610100D8
:10604000E5610100E5610100E5610100E561010034
:10605000E561010000000000F1980100E16E01001F
:10606000E5610100E5610100E5610100E561010014
:10607000E5610100E5610100E5610100E561010004
:10608000E56101009B8D0100E5610100E561010012
:10609000BD8D0100E56101003B950100E561010056
:1060A000E5610100E5610100000000000000000062
:1060B00000000000000000000000000000000000E0
:1060C00000F002F800F040F80CA030C8083824189E
:1060D0002D18A246671EAB4654465D46AC4201D120
:1060E00000F032F87E460F3E0FCCB6460126334212
:1060F00000D0FB1AA246AB4633431847C83E000007
:10610000E83E0000103A02D378C878C1FAD85207A6
:1061100001D330C830C101D504680C60704700005D
:106120000023002400250026103A01D378C1FBD8B3
:10613000520700D330C100D50B6070471FB5C04671
:10614000C0461FBD10B510BD03F0FBFE1146FFF7A2
:10615000F5FF00F021FC03F013FF03B4FFF7F2FF9B
:1061600003BC03F017FF0000401E00BF00BF00BFCC
:1061700000BF00BF00BF00BF00BF00BF00BF00BF27
:1061800000BFF1D17047000070B505460C461646B9
:1061900002E00FCC0FC5103E102EFAD2082E02D30B
:1061A00003CC03C5083E042E07D301CC01C5361F1E
:1061B00003E021782970641C6D1C761EF9D270BD35
:1061C00003210C4802680A4302600B4802680A4334
:1061D00002600A4880470A480047FEE7FEE7FEE7FC
:1061E000FEE7FEE7FEE7000006480749074A084BBE
:1061F000704700002405004054050040B9620100CA
:10620000C16001005827002058370020582F002077
:10621000582F002032483349086070473248008CBC
:10622000C0B2012812D13048808C0007000F00282E
:106230000CD12D48806AF0210840402806D12A4818
:10624000C06A0840002801D1012070470020FCE707
:106250002548008CC0B201282CD12348808C00072F
:10626000000F002826D12048806AF021084000282D
:1062700006D11D48C06A0840002801D1012070479E
:106280001948806AF0210840102806D11648C06AD3
:106290000840002801D10120F1E71348806AF0216D
:1062A0000840302806D11048C06A0840002801D1B3
:1062B0000120E4E70020E2E710B5FFF7C9FF00285E
:1062C00005D00A480A494860C8130A498861FFF79F
:1062D000A5FF002802D001200749886010BD0000FA
:1062E0000024F40000200020C00F00F0DFFF07C0F2
:1062F00000050040006C0040000600400F2000F048
:1063000074FB00BFBFF34F8FF648F749C860BFF377
:106310004F8F00BF00BFFEE704460D462A462146C8
:10632000F248FFF7EBFF044600BFF1A2A52120468B
:10633000FFF7E4FF10B5082000F04EFB0B2000F043
:106340004BFB0F2000F048FB10BD10B5044600F0D9
:10635000FDFD10BDF8B500BFE948EA4B0522032159
:106360000090002002F02EFD054600BF2E46002EB4
:1063700005D000BFDEA2C5213046FFF7BFFF00BF3A
:1063800000BFE14A0121E14802F099FD044600BF47
:106390002546002D05D000BFD5A2CC212846FFF709
:1063A000ADFF00BFF8BD3EB500BF684600780109EB
:1063B0000901491C009168460078F021884310309B
:1063C000009000BF0C22D2A168467CDF044600BFCB
:1063D0002546002D05D000BFC5A2E0212846FFF7C5
:1063E0008DFF00BF0320000278DF044600BF254672
:1063F000002D05D000BFBEA2E4212846FFF77EFF96
:1064000000BF002001900290FF21913168468180F9
:106410004900C18000210181FF219131418101A802
:106420007ADF044600BF2546002D05D000BFB0A28C
:10643000EE212846FFF762FF00BF3EBD30B591B0A8
:1064400005210291B64800680190382103A803F0A5
:10645000C6FC02216846017301218173018202A9F1
:1064600005910121818401A90A91002103A801F06D
:106470002FFF044600BF2546002D06D000BF9CA27A
:10648000FF210C312846FFF739FF00BF11B030BDA6
:1064900030B585B01421684603F0A1FC00BF684602
:1064A000407B01090901491C68464173407BF0218A
:1064B000884310306946487300BF00BF6846807B40
:1064C00000090001401C88736846807BF0218843E6
:1064D00010306946887300BF00BF6846C07B000962
:1064E0000001C8736846C07BF02188436946C873C1
:1064F00000BF00BF6846007C01090901491C6846CD
:106500000174007CF021884310306946087400BF94
:106510000020009001216846017100200290642152
:106520006846017369467F4800F076FC044600BF68
:106530002546002D06D000BF6DA2FF21263128463A
:10654000FFF7DCFE00BF05B030BD1E207649088095
:106550000846807840084000401C887008468078D3
:106560000221884370498870084680781C2188433E
:106570000C306D49887008468078202188436A492C
:1065800088700720C87010200871704770B50546E4
:106590002878002810D13B216448008876DF044623
:1065A00000BF2646002E06D000BF51A2FF21483171
:1065B0003046FFF7A3FE00BF70BD044600BF4CA2EB
:1065C000FF2153312046FFF799FE30B587B01C21DB
:1065D000684603F004FC002000900520C0030190F1
:1065E0000F20000402900321684601730021C1813D
:1065F00001744F4805904F480690684602F0C7FD69
:10660000044600BF2546002D06D000BF38A2FF215A
:106610006A312846FFF772FE00BF07B030BD70B583
:106620000022012109043948006802F08FFC044669
:1066300000BF2546002D06D000BF2DA2FF217631D8
:106640002846FFF75BFE00BF70BD30B585B0142152
:10665000684603F0C4FB00216846017000200190E9
:106660006846017240210182B421418273DF0446F1
:1066700000BF2546002D06D000BF1DA2FF218B3193
:106680002846FFF73BFE00BF082000F0AEF905B03A
:1066900030BDF8B50546288814287DD006DC1028C2
:1066A0000BD0112813D013286DD145E017286DD0D9
:1066B00019286AD05228F7D151E00B2000F095F943
:1066C000082000F097F9A88818490880B5E00B2049
:1066D00000F090F90020C04314490880FFF7B5FF8F
:1066E000ABE000000400FA0500ED00E0EFBEADDE17
:1066F0002E2E5C7372635C6D61696E2E6300000008
:10670000FF690100D42000204B6301000C20002011
:106710005A656E646F5F53656E736F7200000000A0
:10672000C09F0100BC200020042000200A2000207F
:106730008D650100BB650100D54A0021D548008860
:106740007FDF044600BF2746002F06D000BFD24A95
:10675000FF21BE313846FFF7D1FD00BF6DE00022BA
:106760001146CC480088A9DF044600BF2746002F09
:1067700006D000BFC84AFF21C3313846FFF7BEFD2F
:1067800000BF5AE008E057E000E030E03222A91DE7
:10679000C24803F0C5FA50E0C04EB61D3188E88902
:1067A000814211D100223146BA48008881DF044677
:1067B00000BF2746002F06D000BFB74AFF21CF31C8
:1067C0003846FFF79BFD11E000221146B1480088D2
:1067D00081DF044600BF2746002F06D000BFAE4A27
:1067E000FF21D5313846FFF789FD00BF25E0A879A4
:1067F000002820D1082000F0FDF8002001460322E7
:106800000092009A12048B001A4305231B070727E6
:106810003F02DB198700DA5100BF34DF044600BFB6
:106820002746002F06D000BF9B4AFF21E53138469E
:10683000FFF764FD00BF00E000BF00BFF8BD10B56A
:1068400004462046FFF725FF204602F074FD21464E
:10685000934800F0E4F910BD10B50446204600F05E
:10686000B8FE10BDF8B500BF002350228D490820A6
:1068700002F01BFE054600BF2E46002E05D000BFCD
:10688000854A89493046FFF739FD00BF00BF002027
:1068900000900090684660DF044600BF2546002D4A
:1068A00006D000BF7C4A8049C91D2846FFF726FD57
:1068B00000BF7E4802F02FFE044600BF2546002D93
:1068C00006D000BF744A78490B312846FFF716FD01
:1068D00000BF774802F028FE044600BF2546002D81
:1068E00006D000BF6C4A70490F312846FFF706FDFD
:1068F00000BFF8BD70B500BF6E4A0A21082001F044
:106900002FFD044600BF2546002D06D000BF624A79
:10691000654917312846FFF7F1FC00BF00BF70BD85
:1069200070B500BF6449012003F062F8044600BF5F
:106930002546002D06D000BF574A5B49383128460E
:10694000FFF7DCFC00BF00BF70BD70B500BF5B4B44
:106950005B4A01215B4802F0C0FE044600BF2546A9
:10696000002D06D000BF4C4A4F4949312846FFF759
:10697000C5FC00BF00BF70BD70B540DF044600BF5E
:106980002546002D06D000BF434A9B21890028469A
:10699000FFF7B4FC00BF70BDFFF7CCFCFFF7DAFCDB
:1069A000FFF7BEFFFFF7D1FFFFF75CFFFFF7A2FF86
:1069B000FFF7F9FCFFF76CFDFFF740FDFFF705FE61
:1069C000FFF7C3FDFFF72BFEFFF73FFE03E001F0EB
:1069D00089FDFFF7D1FFFAE70321052212070723FC
:1069E0001B02D2188300D150704701218140364AE2
:1069F0009160704701218140334AD16070477CB576
:106A000004460D4600940195304A0821684601F07D
:106A1000C8FC7CBD7CB504460D461646009468460D
:106A2000057146712A4A082101F0BBFC7CBDF8B50E
:106A300004460D46264600BF082D01D1012000E086
:106A400000200746002F05D100BF22A2FF211B31E5
:106A5000FFF754FC00BF316870688847F8BDF8B58F
:106A600005460E462C4600BF082E01D1012000E04D
:106A700000200746002F04D100BF22A2A821FFF763
:106A80003DFC00BF6179207922689047F8BD000085
:106A9000042000200A200020F066010014230020BA
:106AA000BC20002048230020160200003F6801009F
:106AB000596801009823002048240020156A01002D
:106AC0006606000010200020000500502F6A01001B
:106AD0005F6A01002E2E5C6C69625C6E72663531F5
:106AE0003832325C496E636C7564655C6170705FEE
:106AF000636F6D6D6F6E5C6170705F74696D6572F0
:106B00002E6800002E2E5C6C69625C6E72663531F8
:106B10003832325C496E636C7564655C6170705FBD
:106B2000636F6D6D6F6E5C6170705F627574746FB2
:106B30006E2E6800F8B505460E46002432782146D0
:106B4000641C6A5472782146641C6A5400BF022C8B
:106B500001D1012000E000200746002F05D100BF31
:106B600008A22021FFF7CAFB00BF00BF2046F8BDE6
:106B700070B504460D46284603F0B0F820806560E5
:106B800070BD00002E2E5C6C69625C6E72663531E1
:106B90003832325C536F757263655C626C655C623F
:106BA0006C655F73657276696365735C626C655F63
:106BB0007372765F636F6D6D6F6E2E630000000001
:106BC0008A88428270470022D24342827047F8B5D9
:106BD00004460E46207D002820D0B51D29886089F6
:106BE00081421AD1288B022817D12068002814D09E
:106BF00000BF00BFA97EEA7E120211430846C1070A
:106C0000C90F002902D00020009001E0012000906F
:106C1000694620462268904700BF00BFF8BD70B5A6
:106C200005460C462088102804D0112807D050288B
:106C30000FD109E021462846FFF7C2FF0AE02146AE
:106C40002846FFF7C0FF05E021462846FFF7BFFFB3
:106C500000E000BF00BF70BDF0B591B004460D4626
:106C6000207D002819D00020099000BF08A80079D5
:106C700001090901491C08A801710079F021884324
:106C8000103008A9087100BF697B08A8417180799C
:106C900006218843801C08A988711C210AA803F0DA
:106CA0009EF808A8007A02218843811C08A8017276
:106CB000007A10218843217D002901D0012100E0C4
:106CC0000021090110221140084308A90872002080
:106CD0000B900D900E90207D002801D009A800E0B7
:106CE00000200F900020109000BF012168468173A2
:106CF0007749818100BF00200290A97B684601721C
:106D0000E97B4172807A06218843811C6846817242
:106D1000807A08218843014668468172807A102172
:106D20008843014668468172807A41084900684676
:106D30008172297B0191142104A803F050F803A863
:106D4000049002A805900121684601830021418337
:106D50000121818301A80890A088A31D04AA0AA983
:106D6000A2DF0646002E02D0304611B0F0BDA86862
:106D700000284DD000BF01216846817355498181AB
:106D800000BF00200290287C6946087200BF684658
:106D9000407A0109090168464172407AF02188432E
:106DA0006946487200BF6846807A06218843811C84
:106DB00068468172807A082188430146684681725C
:106DC000807A10218843014668468172807A4108A2
:106DD000490068468172A968FFF7ACFE0746142196
:106DE00004A802F0FCFF03A8049002A805906846DE
:106DF000078300214183018B81830890E08822462C
:106E00000E3204A9A3DF0646002E03D03046ACE7BD
:106E10000020E0810020A8E7F8B504460D46286868
:106E200020600020C043608228792075FF202074F4
:106E300000BF0121684681702749018000BF221DE3
:106E400069460120A0DF0646002E01D03046F8BD7D
:106E500029462046FFF700FFF9E733B585B0044621
:106E60000025207C6946097E88422FD001210491AB
:106E70006846007E2074E08806AB04AA0021A4DFE7
:106E80000546002D02D0284607B030BD608A134960
:106E9000884219D0207D002816D000200090019053
:106EA0000290039001210491E1886846018001214C
:106EB00081700021818004A8029006A80390608A56
:106EC0006946A6DF054600E0082500BF2846DBE747
:106ED000192A0000082900000F180000FFFF000019
:106EE000F8B56048006800282FD000205D49086090
:106EF0005D488068C5B201205C4948604B210901AA
:106F000069430846FF2102F076FF81004018FF30F8
:106F10000F3086B2304600F05BF8074639465448D9
:106F2000FFF79BFF0446002C0ED0082C0CD05148D4
:106F3000844209D05048844206D000BF4FA253215A
:106F40002046FFF7DBF900BF00BFF8BD70B5012098
:106F50004F49486080024449486000204149086028
:106F600001204149086007202ADF044600BF25466A
:106F7000002D06D000BF41A269212846FFF7BEF9C7
:106F800000BF00BF032107202BDF044600BF2546BA
:106F9000002D06D000BF39A26C212846FFF7AEF9BC
:106FA00000BF00BF072026DF044600BF2546002D96
:106FB00006D000BF31A26F212846FFF79FF900BF1E
:106FC00000BF00202749086001202849086070BDE3
:106FD00070B504462F48844201DB642540E02D480B
:106FE000643884420BDD2B49091B3A225143084681
:106FF000642102F000FF6421081AC5B230E026487F
:1070000084420CDD23496439091B18225143084688
:10701000A02102F0F0FE2A21081AC5B220E01F4884
:1070200084420CDD1C49091B0C2251430846FF21F8
:107030002D3102F0E0FE1221081AC5B210E0184806
:1070400084420CDD1549091B062251430846FF21E5
:10705000553102F0D0FE0621081AC5B200E0002525
:10706000284670BD0071004000750040007000406F
:10707000BC20002004300000013400002E2E5C7380
:1070800072635C626174746572792E630000000043
:1070900000730040B80B0000B40A0000880900002B
:1070A00034080000002314214143FC4A53541421A6
:1070B000414389184B8002231421414389188B6076
:1070C0000023142141438918CB60142141438918BE
:1070D0000B611421414389188B80704710B5002043
:1070E000EF490880EF490870EC49091F08704870A3
:1070F0008870002403E02046FFF7D4FF641C1E2C98
:10710000F9D310BDFFB583B004460F4615460326DC
:10711000E448007800280BD1002D06D106980028FD
:1071200003D10220DF49087002E00120DD49087028
:10713000DC480078030002F034FF07FD05314E847F
:10714000BAD7FD00D8484069401C002808D0012269
:107150001207126991B2D44A506902F042FE02E06D
:10716000012000074069401E01210907096989B211
:10717000484302900120000700690004820C0120AE
:107180000007006980B278430146029821DF064675
:10719000002E02D10220C3490870D0E0384620DF1B
:1071A0000646002E16D1002D11D1069800280AD1CE
:1071B0002078042803D10720BA4908700AE0052086
:1071C000B849087006E00420B649087002E00320C0
:1071D000B4490870B3E0B4484069401C002808D0A6
:1071E00001221207126991B2AF4A506902F0F9FD0B
:1071F00002E0012000074069401E012109070969DA
:1072000089B24843012109070290096989B279438B
:1072100008462A46029921DF0646002E10D106981C
:1072200000280AD12078042803D106209D4908703F
:1072300006E005209B49087002E004209949087087
:107240007DE099484069401C002808D001221207BF
:10725000126991B2944A506902F0C3FD02E0012024
:1072600000074069401E01210907096989B24843A6
:10727000A900401861884018012109070290096996
:1072800089B27943AA00891862888818069A0299F7
:1072900021DF0646002E09D12078042803D10620DC
:1072A0008049087002E005207E49087047E001200F
:1072B0000007006980B27843AB00C0180290608874
:1072C00082082169029821DF0646002E0BD1002D8D
:1072D00006D10698002803D107207249087002E001
:1072E0000620704908702AE06F484069401C002859
:1072F00008D001221207126991B26B4A506902F05C
:1073000070FD02E0012000074069401E01210907CD
:10731000096989B24843019001200007006981B2E0
:10732000019802F05EFD029020DF0646002E04D197
:10733000072000E002E05B49087000E000BF00BFEA
:10734000304607B0F0BDF0B585B00F275348001F99
:1073500000781421484351494418E56820780228F0
:1073600004D0042823D005286FD16FE02069039052
:107370004B48008886026088801B0490039880191F
:107380000390A08880194519012189020498884238
:1073900006D2049882082846039921DF074605E0B3
:1073A000FF2201322846039921DF074681E0A068C9
:1073B00000013E49401800890490A068000140186F
:1073C00040890390A068000140184068029002982C
:1073D000A84205D10399049848436188884202D0A5
:1073E000A06803280DD101200007006981B228465A
:1073F00002F0F7FC2A4909884618304620DF074684
:1074000022E001200007006981B2284602F0E9FC71
:10741000064601200007006980B27043281A8008E0
:10742000019001200007006980B2711C4843618807
:107430004919401A8008009031462046009B019A65
:10744000FFF760FE074600BF33E031E00120000790
:10745000006981B2284602F0C4FC0646A0884119A2
:1074600001200007006980B27043081A8008049068
:10747000A08840196188421801200007006980B285
:10748000711C4843801A8008039031462046039BB4
:10749000049AFFF737FE07460BE000006024002047
:1074A000202000202320002000100010B8260020FB
:1074B00000BF00BF002F02D10120F9498870384673
:1074C00005B0F0BDFFB581B0064617460024F4486C
:1074D00040781E2837D0F2480078F14949784018A2
:1074E000C4B21E2C02DB20461E38C4B214206043F6
:1074F000EB49091D0E541420604340180761142005
:1075000060434118029805C8CA608860142060432F
:10751000E34A121D801804994180142060438018AA
:107520000A9981800025101F8078002805D1FFF777
:107530000AFF0546112D00D10025D9484078401C8E
:10754000D749487000E00425284605B0F0BD10B5C5
:107550000024D3484078002807DDFFF7F4FE0446F6
:10756000002C02D0112C00D10024204610BDF8B50B
:107570000446CB48007814214843C949091D0E5CD4
:10758000081F007814214843C549091D4018806828
:107590000001C4490D58C248007814214843C0492D
:1075A000091D40184088091F009009781422514392
:1075B000BB4A121D89180B69111F09781422514307
:1075C000B74A121D89180846083022463146A84796
:1075D000F8BDFEB505460026B148807801287DD16A
:1075E0000020AF498870B0480078082811D1022DDA
:1075F00003D10020AC49087002E00020AB490870BC
:10760000FFF7A5FF0646002E02D03046FFF7AFFF7A
:10761000FEBD022D02D0032D79D174E0A048007880
:10762000142148439E49091D4418A1480088401C64
:107630009F4908802078022807D1084600888002E8
:107640006188884201DB012000E0002007462078A5
:10765000052805D194480078072801D1012000E0D1
:10766000002002902078042805D18F480078072850
:1076700001D1012000E000200190207804280BD1E6
:107680008B48008880026188884205DB8648007844
:10769000002801D1012000E000200090029800287D
:1076A00007D10198002804D10098002801D1002FAB
:1076B0001FD000207C4908703046FFF758FF7849FA
:1076C0000878FFF7EFFC002079490880744840787B
:1076D000401E734948700846007800E01AE0401CDC
:1076E0000870084600781E2803DB084600781E381C
:1076F0000870FFF72CFF0646002E02D03046FFF739
:1077000036FF05E003E00D20FFF731FF00E000BF8A
:1077100000BF00BF00BF7BE770B5FFF7DFFC0020B4
:107720006449088064484069401C002808D0012250
:107730001207126991B2604A506902F052FB02E0EE
:10774000012000074069C01E01210907096989B2AB
:1077500048435A49086000205549088000BF0DE0A1
:10776000002102014F4B99500201D21811810201F0
:10777000D21891810201D2185181401C0228EFD306
:107780000820494908704C484069401C002808D02E
:1077900001221207126991B2474A506902F021FB97
:1077A00002E0012000074069401E01210907096924
:1077B00089B24843064601200007006981B230467D
:1077C00002F00FFB054620DF0446002C04D1012007
:1077D0003349887035490870204670BDF8B50446B5
:1077E0000D4600BF31480078002801D10820F8BDBF
:1077F00000BF002C01D10E20F9E7002D01D10E2091
:10780000F5E72068002801D10E20F0E7A0880121CB
:107810000907096989B2884202DCA088102801DAC8
:107820000720E4E7E088002830D023484069401C66
:10783000002808D001221207126991B21E4A50692D
:1078400002F0CFFA02E0012000074069401E01214A
:107850000907096989B24843E188A2885143174A58
:1078600012688918884211D3E088A1884843012111
:107870000907096989B288420ADDA1880122120735
:10788000126990B202F0B7FA002901D00720AEE7E2
:1078900020798007800F002812D00720A7E700007A
:1078A0005C240020B8260020232000202220002075
:1078B0002020002018200020001000101C20002094
:1078C000FE480088022801D1042090E7FB48008888
:1078D0002860FB4800686860F84909880901F94A8E
:1078E000891868684860F54909880901206850507E
:1078F000A088F2490988090189180881E088EF49C0
:1079000009880901891848810027A688E1884E4323
:1079100000BF781C87B201200007006980B2B04226
:1079200005D201200007006980B2361A00E0002667
:1079300001200007006980B2E14909684018E04968
:10794000086001200007006980B2B042E1D9DB483D
:1079500000880001DB4940188781D8480088401C16
:10796000D6490880002042E73CB5034600BFD64810
:107970000078002801D108203CBD00BF002B01D1B8
:107980000E20F9E7002A01D10E20F5E71868022839
:1079900005D218680001CB4C2058002801D10720DF
:1079A000EAE75C68186801940090019C186800017F
:1079B000C44D4019008948432018019000980001E7
:1079C0002C4600194089009C2401641924896043D5
:1079D000009C2401641964680019019CA04201D82C
:1079E0000720C9E7019C0098546010600020C3E79D
:1079F000F8B504460E4615461F4600BFB24800784B
:107A0000002801D10820F8BD00BF002E01D10E20B2
:107A1000F9E7002C01D10E20F5E72068022805D2F5
:107A200020680001A7490858002801D10720EAE78B
:107A300020680001A3494018408921680901A14A32
:107A4000891809894843216809018918496840183B
:107A50006168884201D80720D5E7002D06D020684C
:107A60000001984940180089A84201DA0720CAE7B6
:107A7000E81921680901934A89180989884201DDBA
:107A80000720C0E7304600F05CF9002804D03846F3
:107A900000F057F9002801D11020B4E7606800F029
:107AA00050F9002801D11020ADE72B46324621467F
:107AB00002200097FFF706FDA5E7F8B504460E463D
:107AC00015461F4600BF80480078002801D10820D5
:107AD000F8BD00BF002E01D10E20F9E7002C01D126
:107AE0000E20F5E72068022805D2206800017549BC
:107AF0000858002801D10720EAE7206800017149F1
:107B000040184089216809016E4A8918098948434B
:107B1000216809018918496840186168884201D8BC
:107B20000720D5E7002D06D02068000165494018E0
:107B30000089A84201DA0720CAE7E819216809018B
:107B4000604A89180989884201DD0720C0E730466C
:107B500000F0F7F8002804D0384600F0F2F80028CA
:107B600001D11020B4E7606800F0EBF8002801D1E3
:107B70001020ADE72B463246214605200097FFF73F
:107B8000A1FCA5E7FFB581B00C4615461E4600BF17
:107B90004D480078002802D1082005B0F0BD00BF94
:107BA000002C01D10E20F8E70198002801D10E2009
:107BB000F3E72068022805D22068000141490858EF
:107BC000002801D10720E8E7206800013D4940185E
:107BD0004089216809013B4A89180989484321687D
:107BE00009018918496840186168884201D807204E
:107BF000D3E7002D06D020680001324940180089E3
:107C0000A84201DA0720C8E7A819216809012D4A0E
:107C100089180989884201DD0720BEE7019800F034
:107C200090F8002804D0304600F08BF8002801D1ED
:107C30001020B2E7606800F084F8002801D110201D
:107C4000ABE7606881192A46019802F069F800954F
:107C5000206800011B490F58002203212046019B88
:107C6000B847002099E7F8B504460D4600BF16480E
:107C70000078002801D10820F8BD00BF002C01D1F8
:107C80000E20F9E72068022805D2206800010D497E
:107C90000858002801D10720EEE7206800010949B3
:107CA0004018408921680901064A89180989484312
:107CB0002168090189184968401807E01820002048
:107CC0001C200020B8260020222000206168884265
:107CD00001D80720D0E7606800F033F8002801D110
:107CE0001020C9E723681B011A4FDB1962685B6823
:107CF000D01A226812013B46D218118902F071F89D
:107D0000002901D00720B7E700202B460246214674
:107D100000900420FFF7D6FB06463046ACE701464C
:107D200000BF0D480078002801D10820704700BF2F
:107D3000002901D10E20F9E70848407808600020AA
:107D4000F4E701468807800F002801D10120704721
:107D50000020FCE7B8260020222000205C24002020
:107D6000F7B584B004460F4606980678B01C1F2865
:107D700003DC6078801C1F2802DD0C2007B0F0BDFA
:107D80001F20801B801E85B20295B11C781802A9A5
:107D90007DDF03900398002801D00398EEE7207858
:107DA000022808D168460089A84204DC0920019015
:107DB000684605890BE0082001906078002804D00F
:107DC0006078A84201DC657801E068460589681C96
:107DD000C2B23046711CCEB23A543046721CD6B292
:107DE0000199395406980178A81C0818C1B2069860
:107DF00001700020C2E7F8B505460C462078001D4A
:107E00001F2801DD0C20F8BD684679DF0646002EEC
:107E100001D03046F7E703212278501C2070A95486
:107E200019212278501C2070A954207841196846E5
:107E3000008800F08AFA2178401820700020E2E7DC
:107E4000F8B505460F4616461C466868002801D15D
:107E50000720F8BD2078801C298840181F2801DDE4
:107E60000C20F6E72878401CC1B22278501C207004
:107E7000B1542178481C207077542A8823789819A7
:107E8000696801F04DFF20782978401820700020A3
:107E9000DFE730B503461078C01C1F2801DD0C2039
:107EA00030BD02241578681C10704C550A241578D2
:107EB000681C10704C551578681C10704B550020CC
:107EC000EEE7FFB587B006461D46109C00200690E1
:107ED00020780590002747E0B900706841180A88AB
:107EE0006846028149884181002203A902A865DF12
:107EF00004900498002802D004980BB0F0BD6846A6
:107F0000017B099881422ED10698002801D00020DB
:107F100000E00220019020786946097B4118019811
:107F200008181F2801DD0C20E7E70698002809D172
:107F30002078401C20702278511C08982170A85489
:107F4000012006902078421903A902A865DF049059
:107F50000498002801D00498CFE720786946097B6F
:107F60004018207000BF7F1C3088B842B4DC0698EF
:107F7000002806D021780598401C081AC1B205983F
:107F800029540020B9E7FFB581B0074615460A9E7F
:107F9000009602223846049B0299FFF792FF04469E
:107FA000002C02D0204605B0F0BD009610222946D4
:107FB0003846049BFFF785FF0446002C01D020467D
:107FC000F1E70020EFE701460888062808DB08886B
:107FD0001922D201904205DD0888E04A904201D082
:107FE000072070474888062808DB48881922D201F4
:107FF000904205DD4888D94A904201D00720F0E739
:108000000888D64A904208D04888904205D008880F
:108010004A88904201DD0720E3E70020E1E7F8B558
:1080200006460D4614462078801D1F2801D90C20D5
:10803000F8BD3046FFF7C7FF0746002F01D038468E
:10804000F6E705212278501C2070A95412212278CD
:10805000501C2070A95422785119308800F075F90D
:1080600021784018207022785119708800F06DF93D
:108070002178401820700020DAE7F8B505460E4652
:1080800014462879801CC7B22078801CC0191F288C
:1080900001DD0C20F8BD781CC1B22278501C207084
:1080A000B154FF212278501C2070B15422789119CC
:1080B000288800F04AF9217840182070A888002804
:1080C0000EDDA868002801D10720E3E7AA882378FD
:1080D0009819A96801F024FE2078297940182070A9
:1080E0000020D7E7FEB507460E461446386B002839
:1080F00001D10720FEBD0020019032E0396B0C2237
:10810000019850430D182879801CC0B20090009847
:10811000401CC1B22278501C2070B1541621227824
:10812000501C2070B15422789119288800F00DF964
:10813000217840182070A88800280EDDA868002843
:1081400001D10720D6E7AA8823789819A96801F0F9
:10815000E7FD20782979401820700198401CC0B2B2
:1081600001903420C15D01988142C7DC0020C1E745
:10817000F8B504460F4616460025002030702078DA
:10818000002809D0324639462046FFF7E9FD05466A
:10819000002D01D02846F8BDA078002808D031462F
:1081A0003846FFF728FE0546002D01D02846F2E7A5
:1081B000A08800280ADD33463A460121201DFFF73A
:1081C0003FFE0546002D01D02846E4E7E068002880
:1081D0000BD00020E168085632463946FFF759FEB9
:1081E0000546002D01D02846D5E7208A00280CDD61
:1081F0003B4606220221204610300096FFF7C3FEC0
:108200000546002D01D02846C5E7208B00280CDD4F
:108210003B4607220321204618300096FFF7B3FEA5
:108220000546002D01D02846B5E7208C00280CDD3E
:108230003B4615221421204620300096FFF7A3FE6E
:108240000546002D01D02846A5E7A06A002809D0E0
:1082500032463946A06AFFF7E2FE0546002D01D0FE
:10826000284698E7E06A002809D032463946E06A95
:10827000FFF703FF0546002D01D028468BE7342089
:10828000005D002809DD324639462046FFF72AFF07
:108290000546002D01D028467DE728467BE70146AC
:1082A0008888002808D08868002805D08868007869
:1082B00004221040002801D1072070470020FCE76D
:1082C00001468888002801DD072070470020FCE770
:1082D000F3B593B00D460021129111911398002827
:1082E00014D01398FFF7DBFF0446002C02D0204681
:1082F00015B0F0BD12AA09A91398FFF739FF04467B
:10830000002C01D02046F3E709AE00E00026002D46
:1083100013D02846FFF7D4FF0446002C01D0204696
:10832000E6E711AA01A92846FFF722FF0446002C20
:1083300001D02046DCE701AF00E0002710A8037958
:108340003A46017A304672DFD2E702460A70FF20D1
:10835000000210400012487002207047FFFF00002A
:1083600030B50346481CC004040C10468507AD0F09
:10837000002D01D1012500E00025002D01D10720AD
:1083800030BD7A4802601019794D28600020794D7F
:108390002870794D28707948038079480180002041
:1083A000EEE7F7B584B00C467448008884426BDC75
:1083B000744D0020039000F0A4F802900298012868
:1083C00014D003A82EDF0746022F01D172B60CE0AD
:1083D00000BF0197019F002F06D000BF6AA259215C
:1083E0000198FDF78BFF00BF00BF00BF6148007818
:1083F00000F0B1F860490978884206D05D480578F8
:10840000007800F0A8F85B4908700298012814D0A1
:1084100062B66846007B2FDF0746022F0CD000BFF4
:108420000197019F002F06D000BF57A2612101983C
:10843000FDF764FF00BF00BF00BF5248854221D056
:10844000E9004A4A0698126850500498002811D052
:10845000002C0FDD494909886943454A126888188C
:108460002246049901F05CFCE80040490968401884
:10847000848005E00020E9003C4A12688918888061
:10848000002600E0042600E00926304607B0F0BDD3
:10849000F8B505460E461746052000903548007889
:1084A0003549097888421BD033480478007800F0B9
:1084B00052F8314908703148008860432C490968F6
:1084C00040182860E00029490968401880883080F9
:1084D000E00026490968085838600020009000BF75
:1084E0000098F8BD0EB504E068468188009A0298AD
:1084F00090476A4601A902A8FFF7CAFF0028F3D0F7
:108500000EBD10B52D484068C105C90D002920D009
:108510000A46103A50B200280DDA284B1C330407E3
:10852000240F083CA408A4001B598407E40EE34070
:108530001B069B0F0BE0224B032424021B1984080B
:10854000A4001B598407E40EE3401B069B0FD8B21E
:1085500010BD0420FCE7014609480088814201DA89
:10856000481C00E00020C0B270470000242000201A
:10857000282000202D2000202C2000202E2000204C
:1085800030200020FFFF00002E2E5C6C69625C6EC4
:10859000726635313832325C536F757263655C6177
:1085A00070705F636F6D6D6F6E5C6170705F736331
:1085B000686564756C65722E6300000000ED00E074
:1085C00000E100E010B5002819DAFB4A03071B0F91
:1085D000083B9B089B00D2588307DC0EFF23A34077
:1085E0009A438B071B0E8407E40EA3401A43F24BF9
:1085F0000407240F083CA408A4001A5118E0EF4A0D
:1086000003231B02D21883089B00D2588307DC0E79
:10861000FF23A3409A438B071B0E8407E40EA3405D
:108620001A43E64B032424021B198408A4001A51A0
:1086300010BD10B50446E248846003211120FFF705
:10864000C1FF10BD10B501200004DE494860DD49BE
:1086500040394860112000F0F5FC112000F0E4FCE6
:108660000120D94908602F20FDF77EFD0120D74960
:10867000087010BD10B5112001218140CF4A803211
:10868000116000BF01200004CE498860CD49403907
:1086900088600120CC4948602F20FDF765FD01204E
:1086A000C94988600020CA4908602F20FDF75CFD99
:1086B0000020C649087010BDF0B502462420504382
:1086C000C44B1B68C118C4480068401C002802D174
:1086D000C148026059E0C0484B68006824246043E8
:1086E000BC4C246800194068834217D8BA48006817
:1086F00024235843B74B1B68C01840684B68C31A03
:10870000B548006824246043B24C246800194360D3
:10871000B14800680862B048026036E04B68AE4D70
:108720002C6828680DE024254543AA4E3668AD190B
:108730006D685B1B044624254543A64E3668AD197B
:10874000286A451C002D07D024254543A14E3668D4
:10875000AD196D689D42E6D3451C002D0CD0242533
:1087600045439C4E3668AD196D68EE1A2425454385
:10877000984F3F68ED196E604B6008622425654391
:10878000944E3668AD192A6200BFF0BDF8B50646B2
:10879000914805682C4609E0B44200D109E025461D
:1087A000242060438B4909684018046A601C002833
:1087B000F2D100BF601C002800D1F8BDA54210D145
:1087C0008548006824214843824909684018006AA6
:1087D0008149086008460068401C002801D1FFF765
:1087E00049FF242060437B490968401847682420DA
:1087F0006043784909684018016A24206843754A33
:108800001268801801622420684372490968401880
:10881000046A601C00280CD0242060436D4909685C
:1088200040184068C119242060436A4A12688018C1
:10883000416000BFC1E710B5112000F0FCFB10BD86
:1088400010B5142000F0F7FB10BD70B50446634866
:108850000068002813D0614AE169A0691268904756
:10886000054600BF2E46002E07D000BF5CA2FF21A8
:1088700064313046FDF742FD00BF00BF02E0A16950
:10888000E069884770BDF8B553480068401C00286F
:108890003AD0002700F008FC04464D480168204605
:1088A00000F005FC06464C48056811E024206843AA
:1088B0004849096844186068B04200D90BE0606814
:1088C000361A6068C719256A2046FFF7BEFF00BF49
:1088D000681C0028EAD100BF4D4800784D4909784E
:1088E000884209D14B480078401CC0B24949087001
:1088F000022801D1002008704648007880004649CF
:108900000F50FFF79DFF00BFF8BD014640480078BB
:10891000404A127890421DD03D480078401C3C4AA5
:10892000107010460078022801D1002010703848DD
:1089300000788000384A10580860254A0868126894
:108940008018234A1060104600680002000A106078
:10895000012070470020086000BFFAE7FEB51E48FE
:10896000006801902D480078009076E00098C000E3
:108970002B490968441825786BE018206843616822
:108980000F18681CC5B2A078A84200D1002538781D
:10899000022802D0032859D144E0242178684843B2
:1089A0000C4909684618307D002804D07868FFF724
:1089B000EDFE002030754AE01CED00E000E100E033
:1089C0000015014040130140001001405C200020D0
:1089D000482000203820002044200020582000207B
:1089E0002E2E5C6C69625C6E726635313832325C98
:1089F000536F757263655C6170705F636F6D6D6FEF
:108A00006E5C6170705F74696D65722E630000004A
:108A100054200020552000204C2000203C20002025
:108A2000402000200CE0F849096824225143F74A0D
:108A30001268881800210175F34A016A116000BFAD
:108A4000F1480068401C0028EDD100E000BF00BFE5
:108A500000BF6078A84290D100BF0098411EC9B203
:108A60000091002882D1E84801680198814201D034
:108A70000120FEBD0020FCE7F0B50346002426E0FF
:108A8000E14E366824277E43E04F3F68F019466880
:108A90009E4203D94668F61A46601DE046689B1B55
:108AA00046683419002646600675D74E3568D64F9D
:108AB000066A3E600669002E08D00E193602360A94
:108AC00086600669C66016680662156000BFCE48FB
:108AD0000068401C0028D3D100BFF0BDFEB507469A
:108AE000C94800680290CA48007801906BE001987C
:108AF000C000C849096845185DE0781C002807D007
:108B00003E4624207043C14909684418276A23E07F
:108B10002978182359436A6850182978491C297004
:108B20002978AA78914201D1002129704668242130
:108B30007143B64A12688C180178012902D1217D4F
:108B4000002900D037E08168A160C168E160016957
:108B500021614169E16100BFAF49A0680968401A1D
:108B60000002000AAD49884208D2AB49A0680968F2
:108B700000F09DFAE1684018606011E0A648A16825
:108B8000006800F094FA0090E1680098814204D9EE
:108B9000E1680098081A606001E00020606000BF92
:108BA0000020A060E06001202075801E2062304619
:108BB000FFF782FD00BF781C00289ED128786978D5
:108BC00088429AD100BF0198411EC9B20191002884
:108BD0008DD18D4801680298814201D00120FEBDEF
:108BE0000020FCE7FEB588480068401C002834D00F
:108BF000854800682421484384490968401845682D
:108C000000F052FA0190844804682146019800F06F
:108C10004EFAC61C82480078002801D1FFF712FDE9
:108C2000AE4201D2284600E0304604192402240A4C
:108C300020467C49086000BF00F036FA0090019998
:108C4000009800F034FAC71C2046019900F02FFA72
:108C5000874201D9FFF7EFFD01E0FFF70BFDFEBDF5
:108C6000FEB50020C04301906B4804686648076861
:108C70006846FFF74AFE0546FFF770FE0646002DE0
:108C800005D001AA21460098FFF7F6FE01260198BB
:108C9000FFF724FF002800D00126002E02D038461E
:108CA000FFF7A0FFFEBD4170704770B502460B464E
:108CB0005078411C9078884200D100211078884279
:108CC00001D1002070BD1960507818267043556896
:108CD0002C182046F6E7FFB581B005460E4617462C
:108CE000E9004C4A126888186946FFF7DEFF04461F
:108CF000002C02D1042005B0F0BD01202070666078
:108D000000F0D2F9A060E760049820610A986061E1
:108D1000E900404A126888180099FFF7C4FFFFF77E
:108D20008FFD0020E7E7F8B504460E46E100394A1A
:108D3000126888186946FFF7B8FF0546002D01D173
:108D40000420F8BD022028706E60E100314A1268EC
:108D500088180099FFF7A7FFFFF772FD0020F0E7E2
:108D600038B50446E1002B4A126888186946FFF7B7
:108D70009CFF0546002D01D1042038BD032028703A
:108D8000001F6860E100234A126888180099FFF705
:108D90008AFFFFF755FD0020EFE710B500202249BC
:108DA00008600021204841608160C16000201E49A8
:108DB000403908604860FFF766FD10BD10B5FFF749
:108DC0004FFF10BDFFB581B00E4617461C4620462A
:108DD0008107890F002901D1012100E0002100292C
:108DE00002D1072005B0F0BD002C01D10720F9E722
:108DF000FFF740FC0D490A9808600D4806700348CB
:108E00000460002523E000004420002038200020DA
:108E10003C2000204020002048200020FFFF7F0051
:108E20005C200020401501404011014058200020E6
:108E3000342000200021242068439F4A12681154E6
:108E4000242068439C4A1268801801756D1CB54245
:108E5000F0DB2420704304190320984908709848D7
:108E60000460183400250CE0E900954A126888185F
:108E700000210170417087704460182179430C19FA
:108E80006D1C032DF0DB0020C0438E4908600020DC
:108E90008D4908708D490870142000F0D3F8032123
:108EA0001420FFF78FFB142000F0BEF80198FFF7A5
:108EB000C0FB00F0F9F886490860002092E770B521
:108EC00003460C467C480068002801D1082070BD8C
:108ED000002A01D10720FAE7002B01D10720F6E78D
:108EE00000211CE024204843734D2D68285C002895
:108EF00014D10125242048436F4E36683554242070
:108F000048436D4D2D6840194470242048436A4DF4
:108F10002D684019826119600020D8E7491C6D480E
:108F200000788142DEDB0420D1E710B500F092F832
:108F3000012802D0032804D101E0002403E0012429
:108F400001E0022400BF00BF204610BDFEB504466C
:108F50000D46164658480068002801D10820FEBD7D
:108F60005C480078844201D2052D01D20720F6E743
:108F70002420604350490968085C012801D008207A
:108F8000EDE7242060434C490968401840780128E7
:108F900001D1284600E000200746FFF7C6FF3B4608
:108FA0002A46214600960190FFF795FED7E770B557
:108FB000044641480068002801D1082070BD45489A
:108FC0000078844201D30720F8E7242060433A491F
:108FD0000968085C012801D00820EFE7FFF7A5FF2A
:108FE00005462146FFF79FFEE8E710B532480068C6
:108FF000002801D1082010BDFFF797FF0446FFF7B6
:10900000AFFEF8E710B5044600F04EF820600020EF
:1090100010BD70B505460E4614463146284600F090
:1090200046F82060002070BDC206D20E012191409A
:10903000294A11607047C206D20E01219140274A89
:1090400011607047C206D20E01219140234A80323E
:109050001160704710B522484068C105C90D00294C
:1090600020D00A46103A50B200280DDA1C4B1C33AF
:109070000407240F083CA408A4001B598407E40E2D
:10908000E3401B069B0F0BE0134B032424021B1928
:109090008408A4001B598407E40EE3401B069B0FC1
:1090A000D8B210BD0420FCE70E4840687047024665
:1090B000501A0002000A7047382000203C2000208F
:1090C0004020002044200020542000205520002073
:1090D000482000203420002000E100E000E200E011
:1090E00000ED00E00015014001464888B74A1288AB
:1090F000904206DB4888B54A5288904201DC012044
:1091000070470020FCE738B50546B1480088B149F2
:1091100088423BD0B0480078401CAF490870AF4847
:10912000007B097888420FDBA849A948008875DFD1
:109130000446002C07D0A9488069002803D0A7481E
:1091400081692046884721E00020A3490870A34890
:10915000007C00280FD03B219D48008876DF044624
:10916000002C07D09D488069002803D09B48816966
:109170002046884700BF99484069002806D0002053
:109180000090964841696846884700BF38BD70B571
:1091900005461C2229469148FCF7F6FF002090491D
:1091A0000870286800280BD008228848296800F039
:1091B000B7FD86487ADF0446002C08D0204670BDF3
:1091C00082487BDF0446002C01D02046F7E70020D0
:1091D000C0437F49088000207F490870814A0021F0
:1091E0008148FFF76CFEEAE710B57F480068FFF79B
:1091F000DEFE10BD38B57D48FFF776FF002829D187
:109200007748007800280AD074484069002820D0A8
:1092100000200090714841696846884719E06E480F
:109220000078002802D16D48456801E06B488568E8
:10923000002229466C480068FFF788FE0446002C8F
:1092400007D066488069002803D0644881692046B9
:1092500088470AE061484069002806D00120009054
:109260005E4841696846884700BF00205C49087035
:1092700038BD10B50446A08855490880082221460B
:109280000E315A4800F04CFD0020534908705348F5
:10929000C089002801D1FFF7ADFF10BD70B50546AC
:1092A0000020C0434A49088000204B4908704E48BE
:1092B0000068FFF77CFE0446002C07D04748806911
:1092C000002803D0454881692046884770BD70B5A5
:1092D0000546AC1D20884149C989884220D1208B90
:1092E00002281DD100BF00BFA17EE27E1202114301
:1092F0000846C107C90F002902D0FFF77BFF0FE026
:1093000039480068FFF753FE0646002E07D0334861
:109310008069002803D0314881693046884700BF02
:1093200070BD10B504460822A11D304800F0F8FCBD
:10933000FFF760FF10BD10B504462088102806D046
:10934000112808D012280ED0502810D107E020464E
:10935000FFF78FFF0CE02046FFF7A0FF08E0204654
:10936000FFF7B5FF04E02046FFF7DBFF00E000BF9A
:1093700000BF10BD38B5044608222146134800F04E
:10938000CFFC12487ADF0546002D1CD11748FFF7A5
:10939000ABFE00280BD10120114908700B490C4885
:1093A000008875DF054601200B4908700BE00B486B
:1093B0004069002806D001200090084841696846AD
:1093C000884700BF0025284638BD000060200020E7
:1093D0006A200020FFFF000068200020D82600201F
:1093E0007820002007910100742000206C200020CC
:1093F00070B506460C46154629462046FCF78CFFFC
:1094000070BDF8B55A480078002800D1F8BD594819
:109410000068002801D1012000E0002005465648E0
:109420000068002801D1012000E00020064600BFAE
:10943000002D14D1684651DF0446052C01D10125C9
:109440000CE0002C06D000BF4CA269212046FCF79E
:1094500055FF03E0474900980968884700BF002E80
:109460001AD154480088009069465348006861DF6B
:109470000446052C01D101260DE0002C06D000BFCA
:109480003EA280212046FCF739FF04E04A480068EC
:1094900039490968884700BF002D02D0002E00D04E
:1094A00000E0C5E700BF00BFB0E7FFB581B00C46E4
:1094B00016461F46002C02D1072005B0F0BD2046FD
:1094C0008107890F002901D1012100E00021002935
:1094D00001D10720F1E73848046036480680374854
:1094E00007603749019810DF0546002D01D0284656
:1094F000E3E701201E490870162026DFDDE710B5DE
:1095000011DF0446002C01D0012000E000201849A2
:109510000870204610BD0146002901D10E20704779
:10952000154801600020FAE70146002901D10E200C
:109530007047104801600020FAE770B51F480068C6
:10954000002811D01D4800688047044600BF25460A
:10955000002D07D000BF09A2FF2133312846FCF7B8
:10956000CDFE00BF00BF01E0FFF74BFF70BD000064
:10957000862000208C200020882000202E2E5C6C6D
:1095800069625C6E726635313832325C536F757267
:1095900063655C73645F636F6D6D6F6E5C736F6644
:1095A000746465766963655F68616E646C65722E6C
:1095B0006300000084200020802000207C20002008
:1095C000F1930100F8B504460D4694480068002860
:1095D00013D0EAB22178914B60681B689847064621
:1095E00000BF3746002F06D000BF8DA22821384685
:1095F000FCF784FE00BF00BF0CE0012D04D12078F1
:1096000001216268904705E0002D03D120780021F8
:1096100062689047F8BDF8B5074669468C480078FF
:1096200000F0F7FA0646002E00D0F8BD002534E021
:10963000E8008849096844188748006822780121B1
:109640009140084000280FD0606800280CD0607856
:10965000012804D100212046FFF7B4FF1BE00121BF
:109660002046FFF7AFFF16E07B48406822780121D3
:109670009140084000280ED0606800280BD0607828
:10968000012804D101212046FFF79CFF03E00021BF
:109690002046FFF797FF681CC5B2704800788542E6
:1096A000C6DB00BFC1E770B504460D466C480068D4
:1096B000FFF77DFC0646002E00D070BD6648446072
:1096C00005602046284302466648016864480068F1
:1096D000FFF73CFC064600BFEFE7FFB583B0064648
:1096E0000C461746052F02D2072007B0F0BD594897
:1096F00006605A4804705B4807604849069808604D
:10970000002515E0E1008819027800928178019126
:10971000019989000522120707231B02D318009A1A
:109720009200995000BF0278012191400D4300BF83
:109730002046611ECCB20028E4D14B4B2A46294674
:10974000434800F08FF902900298002801D0029857
:10975000CBE7464A00214248FFF7B1FBC5E710B509
:109760003C480068002801D1082010BD3848007826
:1097700000F0BDF9F9E710B536480068002801D1BE
:10978000082010BD3248007800F022FA0446002C70
:1097900001D02046F5E732480068FFF708FCF0E703
:1097A000F8B506460C462D480078864201DD0720B4
:1097B000F8BDF000274909684518264800680028C8
:1097C00001D10820F4E769462148007800F021FA29
:1097D0000746002F01D03846EAE7687800280CD108
:1097E00029780098C840C007C00F002802D0002088
:1097F000207011E0012020700EE0687801280BD164
:1098000029780098C840C007C00F002802D0012066
:10981000207001E0002020700020C9E79C2000207B
:109820002E2E5C6C69625C6E726635313832325C49
:10983000536F757263655C6170705F636F6D6D6FA0
:109840006E5C6170705F627574746F6E2E63000081
:10985000A020002090200020A8200020942000209C
:10986000A420002098200020A79601001796010050
:10987000F0B502460C46002037E00123834019462C
:1098800023460B40002B2FD0D5680D40002D05D16D
:1098900001235B04D5680D43D56004E003231B045A
:1098A000D5688D43D56005252D0707263602AD19ED
:1098B0008600AD5903263604B5430526360707272B
:1098C0003F02F6198700F55105252D0707263602B8
:1098D000AD198600AD591D430526360707273F02FF
:1098E000F6198700F55100BF401C2028C5D3F0BDF4
:1098F000F0B585B0EF4805690020EF49C863002640
:109900003FE014207043ED49096844180120B0403D
:10991000EB4909680840002831D0E068C04368403E
:1099200021680840074639462046FFF7A1FFE14875
:10993000006968400390039800280ED003980543FF
:10994000E068C043684021680840009020460099C4
:10995000FFF78EFF0098074300BFA068A843384078
:1099600001906068284038400290019902980843AD
:10997000002803D0226901990298904700BF701C0B
:10998000C6B2D04800788642BBDB05B0F0BD10B54A
:109990000146002029E014224A43C84B1B689A580C
:1099A000012383401A40002A1ED0052212070723F4
:1099B0001B02D2188300D25803231B049A430523A9
:1099C0001B07072424021B1984001A5105221207C1
:1099D00007231B02D2188300D25805231B07072434
:1099E00024021B1984001A51401C2028D3D310BD17
:1099F00070B505460C46002C01D1072070BD2046ED
:109A00008107890F002901D1012100E000210029EF
:109A100001D10720F2E7A9480460AB480570002097
:109A2000A8490870A6490860A74800781422504346
:109A30000146A248006800F0D2F90020C043A349C3
:109A40008860062001218140A14A116000BF0121E8
:109A500000F0F9F80620012181409E4A116000BF04
:109A60000020CBE7F8B504460D4616461F4693483E
:109A70000068002801D10820F8BD002F01D107207F
:109A8000FAE79048007890490978884201DB042081
:109A9000F2E7284630438B49097814225143874A1C
:109AA0001268505087480078142148438349096858
:109AB0004018456083480078142148437F4909686D
:109AC000401886607F480078142148437B49096824
:109AD000401807617B48007820707A480078401C65
:109AE000784908702078FFF752FF0020C4E7F0B5EE
:109AF000024672480068002801D10820F0BD714874
:109B00000078824201DB0720F8E700206A4BD86327
:109B1000684804696A480068002802D158066B4BFF
:109B2000586001209040664B1B681843644B1860D6
:109B3000002314205043614D2D684019C36000215B
:109B400042E001238B401846142353435B4D2D689C
:109B5000EB580340002B36D025460540002D02D09F
:109B600003231B040EE001235B0414255543534ECD
:109B70003668AD19ED680543142656434F4F3F68CC
:109B8000F619F56005252D0707263602AD198E005A
:109B9000AD5903263604B5430526360707273F028D
:109BA000F6198F00F55105252D0707263602AD1948
:109BB0008E00AD591D430526360707273F02F619CB
:109BC0008F00F55100BF491C2029BAD3002095E72A
:109BD00010B5044639480068002801D1082010BD9E
:109BE00038480078844201DB0720F8E72046FFF779
:109BF000CEFE0120A040324909688143304801600F
:109C00000068002803D10120C00730498860002087
:109C1000E5E710B5024629480068002801D1082070
:109C200010BD28480078824201DB0720F8E71420A5
:109C30005043224C246803191E4800691C682040C8
:109C400008600020ECE710B5002819DA224A030763
:109C50001B0F083B9B089B00D2588307DC0EFF2399
:109C6000A3409A438B071B0E8407E40EA3401A43BC
:109C7000194B0407240F083CA408A4001A5118E04B
:109C8000144A03231B02D21883089B00D25883076F
:109C9000DC0EFF23A3409A438B071B0E8407E40EC0
:109CA000A3401A430B4B032424021B198408A4006D
:109CB0001A5110BD0005005040610040B82000203E
:109CC000B0200020B5200020B42000200063004018
:109CD00080E200E000E100E01CED00E030B5441C53
:109CE00003E00178401C00290DD08107F9D10B4B0E
:109CF000DD0104C8D11A91432940FAD0001B0A069D
:109D000003D0C01E30BD001B30BD0A0401D0801E30
:109D100030BD0902FCD0401E30BD00000101010130
:109D2000F8B5042A2CD3830712D00B78491C037092
:109D3000401C521E83070BD00B78491C0370401C3B
:109D4000521E830704D00B78491C0370401C521E1E
:109D50008B079B0F05D0C91ADF002023DE1B08C923
:109D60000AE0FCF711FAF8BD1D4608C9FD401C4683
:109D7000B4402C4310C0121F042AF5D2F308C91AAC
:109D8000521EF0D40B78491C0370401C521EEAD4BA
:109D90000B78491C0370401C012AE4D40978017037
:109DA000F8BD01E004C0091F0429FBD28B0701D5CF
:109DB0000280801CC90700D00270704700290BD0B8
:109DC000C30702D00270401C491E022904D3830736
:109DD00002D50280801C891EE3E70022EEE7002204
:109DE000DFE7002203098B422CD3030A8B4211D3F5
:109DF00000239C464EE003460B433CD4002243081C
:109E00008B4231D303098B421CD3030A8B4201D30B
:109E100094463FE0C3098B4201D3CB01C01A5241A3
:109E200083098B4201D38B01C01A524143098B42F3
:109E300001D34B01C01A524103098B4201D30B01DC
:109E4000C01A5241C3088B4201D3CB00C01A524101
:109E500083088B4201D38B00C01A524143088B42C6
:109E600001D34B00C01A5241411A00D2014652415F
:109E7000104670475DE0CA0F00D04942031000D37E
:109E80004042534000229C4603098B422DD3030AD3
:109E90008B4212D3FC22890112BA030A8B420CD3E3
:109EA000890192118B4208D3890192118B4204D30C
:109EB00089013AD0921100E08909C3098B4201D38C
:109EC000CB01C01A524183098B4201D38B01C01AC6
:109ED000524143098B4201D34B01C01A524103093D
:109EE0008B4201D30B01C01A5241C3088B4201D3EC
:109EF000CB00C01A524183088B4201D38B00C01A99
:109F00005241D9D243088B4201D34B00C01A52416F
:109F1000411A00D20146634652415B10104601D3FC
:109F20004042002B00D54942704763465B1000D386
:109F3000404201B50020C046C04602BD7047704790
:109F40007047754600F022F8AE4605006946534654
:109F5000C008C000854618B020B5FCF745F960BCC4
:109F600000274908B6460026C0C5C0C5C0C5C0C543
:109F7000C0C5C0C5C0C5C0C5403D49008D4670477D
:109F80000446C046C0462046FCF7E7F80048704744
:109F9000F426002001491820ABBEFEE7260002008F
:109FA000704730B47446641E2578641CAB4204D3F9
:109FB000635D5B00E31830BC18471D46F8E70000FE
:109FC0000F180100E49F010000200020BC000000E9
:109FD00004610100A0A00100BC2000209C1600002C
:109FE000206101000024F400000000000000FFFFD9
:109FF0000000000000000000000000000000000061
:10A000000000000000000000000000000000000050
:10A010000000000000000000000000000000000040
:10A020000000000000000000000000000000000030
:10A030000000000000000000000000000000000020
:10A040000000000000000000000000000000000010
:10A050000000000000000000000000000000000000
:10A0600000000000000000000000000000000000F0
:10A0700000000000000000000000000000000000E0
:10A0800000000000000000000000000000000000D0
:10A0900000000000000000000000000000000000C0
:04000005000160C1D5
:00000001FF
