:020000040001F9
:10600000D8370020E1610100FB610100FD61010062
:106010000000000000000000000000000000000080
:10602000000000000000000000000000FF6101000F
:106030000000000000000000016201000362010096
:1060400005620100056201000562010005620100B0
:106050000562010000000000AD9F0100797301009E
:106060000562010005620100056201000562010090
:106070000562010005620100056201000562010080
:1060800005620100579401000562010005620100EC
:106090007994010005620100F79B0100056201008F
:1060A0000562010005620100000000000000000020
:1060B00000000000000000000000000000000000E0
:1060C00000F002F800F040F80CA030C8083824189E
:1060D0002D18A246671EAB4654465D46AC4201D120
:1060E00000F032F87E460F3E0FCCB6460126334212
:1060F00000D0FB1AA246AB4633431847F0460000D7
:1061000010470000103A02D378C878C1FAD8520775
:1061100001D330C830C101D504680C60704700005D
:106120000023002400250026103A01D378C1FBD8B3
:10613000520700D330C100D50B6070471FB5C04671
:10614000C0461FBD10B510BD04F006FB1146FFF799
:10615000F5FF00F080FC04F01EFB03B4FFF7F2FF34
:1061600003BC04F023FB0000401E00BF00BF00BFC3
:1061700000BF00BF00BF00BF00BF00BF00BF00BF27
:1061800000BFF1D170470000401E00BF00BF00BF3C
:1061900000BF00BF00BF00BF00BF00BF00BF00BF07
:1061A00000BFF1D17047000070B505460C46164699
:1061B00002E00FCC0FC5103E102EFAD2082E02D3EB
:1061C00003CC03C5083E042E07D301CC01C5361FFE
:1061D00003E021782970641C6D1C761EF9D270BD15
:1061E00003210C4802680A4302600B4802680A4314
:1061F00002600A4880470A480047FEE7FEE7FEE7DC
:10620000FEE7FEE7FEE7000006480749074A084B9D
:10621000704700002405004054050040D962010089
:10622000C1600100D8270020D8370020D82F0020D7
:10623000D82F002032483349086070473248008C1C
:10624000C0B2012812D13048808C0007000F00280E
:106250000CD12D48806AF0210840402806D12A48F8
:10626000C06A0840002801D1012070470020FCE7E7
:106270002548008CC0B201282CD12348808C00070F
:10628000000F002826D12048806AF021084000280D
:1062900006D11D48C06A0840002801D1012070477E
:1062A0001948806AF0210840102806D11648C06AB3
:1062B0000840002801D10120F1E71348806AF0214D
:1062C0000840302806D11048C06A0840002801D193
:1062D0000120E4E70020E2E710B5FFF7C9FF00283E
:1062E00005D00A480A494860C8130A498861FFF77F
:1062F000A5FF002802D001200749886010BD0000DA
:106300000024F40000200020C00F00F0DFFF07C0D1
:1063100000050040006C0040000600400F2000F027
:10632000E2FB00BFBFF34F8FFD48FE49C860BFF3DB
:106330004F8F00BF00BFFEE704460D462A462146A8
:10634000F948FFF7EBFF044600BFF8A2B42120464E
:10635000FFF7E4FF10B5082000F0BCFB0B2000F0B5
:10636000B9FB0F2000F0B6FB10BD10B5044601F0DC
:1063700039F810BD10B504460021F04804F05FF86C
:10638000EE491431EE4801F0A3F910BDF8B500BF95
:10639000EC48ED4B052204210090002003F070F83A
:1063A000054600BF2E46002E05D000BFDFA2DC212F
:1063B0003046FFF7B3FF00BF00BFE44A0121E448C5
:1063C00003F0DBF8044600BF2546002D05D000BFD2
:1063D000D6A2E3212846FFF7A1FF00BFDD4A012135
:1063E000DD4803F0CAF8044600BF2546002D05D05D
:1063F00000BFCEA2E6212846FFF790FF00BFF8BD00
:106400003EB500BF6846007801090901491C0091AA
:1064100068460078F02188431030009000BF0C22BD
:10642000CEA168467CDF044600BF2546002D05D07E
:1064300000BFBEA2FC212846FFF770FF00BF03206B
:10644000000278DF044600BF2546002D06D000BFBD
:10645000B6A2FF2101312846FFF760FF00BF0020F0
:1064600001900290FF219131684681804900C180EE
:1064700000210181FF219131418101A87ADF044689
:1064800000BF2546002D06D000BFA8A2FF210B317A
:106490002846FFF743FF00BF3EBD30B591B0052150
:1064A0000291B24800680190382103A804F073F803
:1064B00002216846017301218173018202A90591BD
:1064C0000121818401A90A91002103A802F05EFA4A
:1064D000044600BF2546002D06D000BF93A2FF2131
:1064E00028312846FFF71AFF00BF11B030BD30B584
:1064F00089B0142104A804F04EF800BF6846407F1C
:1065000001090901491C68464177407FF021884311
:1065100010306946487700BF00BF04A8807B00099F
:106520000001401C04A9887304A8807BF0218843E3
:10653000103004A9887300BF00BF04A8C07B000905
:106540000001C87304A8C07BF021884304A9C87364
:1065500000BF00BF08A8007801090901491C08A86C
:1065600001700078F0218843103008A9087000BF3E
:1065700000200490012168460175002006906421E6
:106580006846017704A97A4800F092FE044600BFED
:106590002546002D06D000BF64A2FF2143312846C6
:1065A000FFF7BCFE00BF01A9654801F062F8044690
:1065B00000BF2546002D06D000BF5CA2FF2146315A
:1065C0002846FFF7ABFE00BF09B030BD1E20694969
:1065D00008800846807840084000401C88700846C3
:1065E00080780221884363498870084680781C219E
:1065F00088430C305F4988700846807820218843A2
:106600005C4988700720C87010200871704770B509
:1066100005462878002810D13B215748008876DFAE
:10662000044600BF2646002E06D000BF3FA2FF2131
:1066300068313046FFF772FE00BF70BD044600BFF0
:106640003AA2FF2173312046FFF768FE30B587B0CC
:106650001C21684603F09FFF002000900520C00326
:1066600001900F200004029003216846017300216D
:10667000C18101744148059041480690684603F085
:10668000E4F8044600BF2546002D06D000BF27A22F
:10669000FF218A312846FFF741FE00BF07B030BD19
:1066A00070B50022012109042948006802F0ACFFFE
:1066B000044600BF2546002D06D000BF1BA2FF21C7
:1066C00096312846FFF72AFE00BF00220121090467
:1066D0002148006802F098FF044600BF2546002DBF
:1066E00006D000BF11A2FF2199312846FFF716FE00
:1066F00000BF70BD30B585B01421684603F04BFF74
:106700000021684601700020019068460172402116
:106710000182B421418273DF044600BF254631E087
:106720000400FA0500ED00E0EFBEADDE2E2E5C7336
:1067300072635C6D61696E2E6300000010210020A1
:10674000D8200020FB6A0100302100206B6301008B
:106750000C20002075630100102000205A656E6433
:106760006F5F53656E736F7200000000D8A7010061
:10677000C0200020042000200A2000200F66010015
:106780003D660100002D06D000BFF84AFF21AE3162
:106790002846FFF7C3FD00BF082000F0A4F905B0AC
:1067A00030BDF8B50546288814284ED006DC1028E0
:1067B0000BD0112813D0132872D11AE017283ED01D
:1067C00019286FD05228F7D126E00B2000F08BF962
:1067D000082000F08DF9A888E549088087E00B20A3
:1067E00000F086F90020C043E1490880FFF782FFEE
:1067F0007DE0E04A0021DE4800887FDF044600BFDC
:106800002746002F06D000BFD84AFF21E131384685
:10681000FFF784FD00BF6AE000221146D4480088DB
:10682000A9DF044600BF2746002F06D000BFCF4A8D
:10683000FF21E6313846FFF771FD00BF57E03222F5
:10684000A91DCD4803F048FE51E0CB4EB61D31885E
:10685000E889814211D100223146C548008881DF94
:10686000044600BF2746002F06D000BFBF4AFF21C5
:10687000F2313846FFF752FD11E000221146BC48C4
:10688000008881DF044600BF2746002F06D000BFE6
:10689000B64AFF21F8313846FFF740FD00BF26E039
:1068A00024E0FFE7A87900281FD1082000F020F994
:1068B0000020014603220092009A12048B001A4322
:1068C00005231B0707273F02DB198700DA5100BFAA
:1068D00034DF044600BF2746002F05D000BFA34A7F
:1068E000A6493846FFF71AFD00BF00E000BF00BF11
:1068F000F8BD10B504462046FFF753FF204603F0CD
:1069000078F821469E4800F0D6FB21469D4800F0CD
:10691000FDFE10BD10B50446204601F0B8F910BDCB
:10692000F8B500BF002350229749082003F01BF957
:10693000054600BF2E46002E06D000BF8B4A8F4969
:1069400034313046FFF7EAFC00BF00BF0020009062
:106950000090684660DF044600BF2546002D06D043
:1069600000BF824A85493B312846FFF7D7FC00BF6C
:10697000864803F02EF9044600BF2546002D06D0B8
:1069800000BF7A4A7D493F312846FFF7C7FC00BF68
:106990007F4803F027F9044600BF2546002D06D0A6
:1069A00000BF724A754943312846FFF7B7FC00BF64
:1069B000F8BD70B500BF774A0A21082002F02EF812
:1069C000044600BF2546002D06D000BF674A6B492C
:1069D0004B312846FFF7A2FC00BF00BF70BD70B569
:1069E00000BF6D49012003F061FB044600BF25464E
:1069F000002D06D000BF5D4A60496C312846FFF784
:106A00008DFC00BF00BF70BD70B500BF634B644A12
:106A10000121644803F0BFF9044600BF2546002D5C
:106A200006D000BF514AA12189002846FFF776FC15
:106A300000BF00BF70BD70B540DF044600BF2546F3
:106A4000002D06D000BF494A4C498A312846FFF73D
:106A500065FC00BF70BD0EB500F090FA012000F09B
:106A60009DFA192003F098FC062019211D221C23F1
:106A70000092019102901E224B494C4800F0C2F94D
:106A80004A4800F03AF94949494803F093FC48481C
:106A900003F09CFCFFF75EFCFFF778FCFFF79FFF1D
:106AA000FFF7B2FFFFF73CFFFFF783FFFFF7A8FCFC
:106AB000FFF71DFDFFF7F1FCFFF7C8FDFFF786FDAF
:106AC000FFF7EEFDFFF716FE03E002F069F8FFF7AF
:106AD000B2FFFAE703210522120707231B02D2188F
:106AE0008300D150704701218140324A9160704744
:106AF000012181402F4AD16070477CB504460D4684
:106B0000009401952C4A0821684601F0A8FF7CBD3D
:106B10007CB504460D4616460094684605714671DC
:106B2000264A082101F09BFF7CBDF8B504460D46BE
:106B3000264600BF082D01D1012000E000200746B5
:106B4000002F05D100BF1EA2FF211B31FFF7E6FB7E
:106B500000BF316870688847F8BDF8B505460E4635
:106B60002C4600BF082E43D1012042E02C670100D3
:106B70000A200020042000209823002007020000A3
:106B8000C0200020D8200020CC230020F368010082
:106B9000156901001C240020CC240020116B010089
:106BA000660600001420002000300040EC20002089
:106BB00010210020000500502B6B01005B6B0100D1
:106BC0002E2E5C6C69625C6E726635313832325CD6
:106BD000496E636C7564655C6170705F636F6D6D49
:106BE0006F6E5C6170705F74696D65722E68000015
:106BF00000200746002F04D100BF05A2A821FFF7FF
:106C00008DFB00BF6179207922689047F8BD0000B4
:106C10002E2E5C6C69625C6E726635313832325C85
:106C2000496E636C7564655C6170705F636F6D6DF8
:106C30006F6E5C6170705F627574746F6E2E680049
:106C4000FFB581B0044616461F468748406820219C
:106C5000095DC840C007C00F002809D02021085D89
:106C600000F0FCF801200522120221688918086052
:106C700000252EE0002E01D0705D00E000200523ED
:106C80001B022268D218D061608900900BE06089F5
:106C9000002808D00098401E00900098002802D1DB
:106CA000724805B0F0BD2068FF30013080680028D0
:106CB000EDD005221202206880188069C1B2002F31
:106CC00000D0795500222068FF30013082606D1CB1
:106CD00000BF02988542CDDB04210A9808400028B5
:106CE00009D02021085D00F0B4F80020052212022E
:106CF0002168891808600020D3E770B50446202178
:106D0000085D00F0A6F82321085D00F0A2F821211B
:106D1000085D00F0A3F82021085D00F091F8212122
:106D2000085D00F08DF82222105D00218A00052305
:106D30001B0707252D025B1985005A5100BF23212F
:106D4000085D00F07DF82120005D05221202216817
:106D50008918C8602220005D2168891808612320F5
:106D6000005D2168891888600020216889184865BD
:106D7000207A030003F021FD07050D151D252D3593
:106D80003D00012040060522120221688918486250
:106D90002FE001208006052212022168891848622E
:106DA00027E00120C00605221202216889184862E6
:106DB0001FE001200007052212022168891848629D
:106DC00017E0012040070522120221688918486255
:106DD0000FE001208007052212022168891848620D
:106DE00007E00120C00705221202216889184862C5
:106DF00000BF00BF01200522120221688918086027
:106E0000002070BDF8B504460D4616461F462421E5
:106E1000204603F0C0FB25600120207108982072F5
:106E200020200655212007552221069808552321A8
:106E3000079808550E4860610E48A0610020F8BD13
:106E400003210522120707231B02D2188300D15009
:106E5000704701218140044A9160704701218140BF
:106E6000014AD160704700000005005004C0FFFFD8
:106E7000FB6C0100416C010070B504460E461546DE
:106E80001421204603F087FB6660A560002070BDDA
:106E9000FFB581B00446164660680079002802D02C
:106EA000012811D10AE0207C61680861012E04DD0F
:106EB0006946087A80210843029008E06946087A0A
:106EC00080210843029002E02B4805B0F0BD00BFCE
:106ED0000025002D08D1012000906068002302AA3F
:106EE00001218769B8470546002D08D1062000908A
:106EF0006068876900223146049BB84705462846EA
:106F0000E3E7FFB581B004461546606800790028C4
:106F100002D0012813D10AE0207C61680861012DAC
:106F200004DD6946087A8021084302900AE0012DB9
:106F300004DD6946087A40210843029002E00E48C9
:106F400005B0F0BD00BF0026002E08D10120009042
:106F50006068002302AA01218769B8470646002E0F
:106F600008D1052000906068002387692946049AAB
:106F7000B84706463046E3E702C0FFFF10B50920D8
:106F800000F01CF8092003210522120707231B0229
:106F9000D2188300D15000BF002010BD10B50446A8
:106FA000002C06D0092001218140074A916000BFD2
:106FB00002E0092000F002F8002010BD012181400C
:106FC000014AD1607047000000050050F8B5054641
:106FD0000E46002432782146641C6A547278214699
:106FE000641C6A5400BF022C01D1012000E0002083
:106FF0000746002F05D100BF08A22021FFF78EF918
:1070000000BF00BF2046F8BD70B504460D462846B7
:1070100003F040FA2080656070BD00002E2E5C6C8D
:1070200069625C6E726635313832325C536F7572EC
:1070300063655C626C655C626C655F7365727669E2
:107040006365735C626C655F7372765F636F6D6DB1
:107050006F6E2E63000000008A8842827047002213
:10706000D24342827047F8B504460E46207D002880
:1070700020D0B51D2988608981421AD1288B022829
:1070800017D12068002814D000BF00BFA97EEA7E77
:10709000120211430846C107C90F002902D000207F
:1070A000009001E001200090694620462268904748
:1070B00000BF00BFF8BD70B505460C4620881028FB
:1070C00004D0112807D050280FD109E021462846C6
:1070D000FFF7C2FF0AE021462846FFF7C0FF05E0A0
:1070E00021462846FFF7BFFF00E000BF00BF70BD8C
:1070F000F0B591B004460D46207D002819D000203F
:10710000099000BF08A8007901090901491C08A8D5
:1071100001710079F0218843103008A9087100BF7F
:10712000697B08A84171807906218843801C08A9E1
:1071300088711C210AA803F02EFA08A8007A0221FF
:107140008843811C08A80172007A10218843217DA0
:10715000002901D0012100E0002109011022114085
:10716000084308A9087200200B900D900E90207D16
:10717000002801D009A800E000200F900020109006
:1071800000BF0121684681737749818100BF0020DB
:107190000290A97B68460172E97B4172807A0621E0
:1071A0008843811C68468172807A082188430146A1
:1071B00068468172807A1021884301466846817250
:1071C000807A4108490068468172297B0191142127
:1071D00004A803F0E0F903A8049002A80590012197
:1071E00068460183002141830121818301A8089021
:1071F000A088A31D04AA0AA9A2DF0646002E02D079
:10720000304611B0F0BDA86800284DD000BF012164
:10721000684681735549818100BF00200290287C17
:107220006946087200BF6846407A0109090168464C
:107230004172407AF02188436946487200BF68462F
:10724000807A06218843811C68468172807A0821F1
:107250008843014668468172807A1021884301463E
:1072600068468172807A4108490068468172A9683F
:10727000FFF7ACFE0746142104A803F08CF903A81D
:10728000049002A805906846078300214183018B82
:1072900081830890E08822460E3204A9A3DF0646C7
:1072A000002E03D03046ACE70020E0810020A8E7A4
:1072B000F8B504460D46286820600020C04360826F
:1072C00028792075FF20207400BF01216846817055
:1072D0002749018000BF221D69460120A0DF064624
:1072E000002E01D03046F8BD29462046FFF700FFAA
:1072F000F9E733B585B004460025207C6946097E50
:1073000088422FD0012104916846007E2074E088D5
:1073100006AB04AA0021A4DF0546002D02D02846B2
:1073200007B030BD608A1349884219D0207D0028FB
:1073300016D000200090019002900390012104914A
:10734000E18868460180012181700021818004A8C4
:10735000029006A80390608A6946A6DF054600E011
:10736000082500BF2846DBE7192A0000082900008D
:107370000F180000FFFF0000F8B560480068002803
:107380002FD000205D4908605D488068C5B20120AB
:107390005C4948604B21090169430846FF2103F01D
:1073A00006F906214843FF300F3086B2304600F020
:1073B0005BF8074639465448FFF79BFF0446002C0C
:1073C0000ED0082C0CD05148844209D05048844239
:1073D00006D000BF4FA253212046FEF79FFF00BFFB
:1073E00000BFF8BD70B501204F4948608002444994
:1073F0004860002041490860012041490860072099
:107400002ADF044600BF2546002D06D000BF41A25A
:1074100069212846FEF782FF00BF00BF0321072035
:107420002BDF044600BF2546002D06D000BF39A241
:107430006C212846FEF772FF00BF00BF072026DF41
:10744000044600BF2546002D06D000BF31A26F21A3
:107450002846FEF763FF00BF00BF002027490860F1
:1074600001202849086070BD70B504462F48844249
:1074700001DB642540E02D48643884420BDD2B4954
:10748000091B3A2251430846642103F090F8642115
:10749000081AC5B230E0264884420CDD234964391D
:1074A000091B182251430846A02103F080F82A2125
:1074B000081AC5B220E01F4884420CDD1C49091B94
:1074C0000C2251430846FF212D3103F070F81221A0
:1074D000081AC5B210E0184884420CDD1549091B92
:1074E000062251430846FF21553103F060F806217A
:1074F000081AC5B200E00025284670BD00710040A2
:107500000075004000700040C020002004300000E2
:10751000013400002E2E5C7372635C6261747465CA
:1075200072792E630000000000730040B80B000069
:10753000B40A0000880900003408000030B593B098
:1075400004460D467F20C005019002900390002064
:107550000B9000BF08A8007B01090901491C08A87D
:107560000173007BF0218843103008A9087300BF25
:1075700000BF08A8407B01090901491C08A8417304
:10758000407BF0218843103008A9487300BF08A849
:10759000807B06218843811C08A881731C210CA8CC
:1075A00002F0F9FF08A8007C02218843811C08A88A
:1075B0000174007C10218843411808A80174002040
:1075C0000D900F9010900BA8119000201290A17BAD
:1075D000684681745E4901820020059000BF6846BC
:1075E000007D01090901491C68460175007DF021F3
:1075F000884310306946087500BF00BF6846407D6B
:107600000109090168464175407DF02188436946BA
:10761000487500BF6846807D06218843811C684606
:107620008175807D08218843014668468175807D8B
:1076300010218843014668468175807D41084900D4
:1076400068468175142106A802F0A5FF04A80690DB
:1076500005A807900C21684601848184002141849B
:1076600000200A90A088A31D06AA0CA9A2DF13B0CF
:1076700030BD70B586B004460E46364B0FCB01AD1B
:107680000FC521460E3101A863DF0546002D02D04B
:10769000284606B070BD0020C0432082A17B68460A
:1076A00081752B49491E8182221D05A90120A0DF79
:1076B0000546002D01D02846EBE731462046FFF76E
:1076C0003DFF0546002D01D02846E2E70020E0E717
:1076D00070B586B004460E46208A1F49884211D0F4
:1076E0000C210591E188684681800121817105A8FE
:1076F00003900496208A01A9A6DF0546002D00D03C
:107700000C2500E00825284606B070BD704770B50E
:1077100088B004460E460C21079110480090019055
:10772000029000200390049005900690E18868463E
:107730008181012181730021018207A8059068469B
:107740000690208A03A9A6DF054608B070BD000098
:1077500024150000DCA70100FFFF000000007F43AC
:10776000002314214143FC4A5354142141438918F6
:107770004B8002231421414389188B60002314217C
:1077800041438918CB601421414389180B611421AE
:10779000414389188B80704710B50020EF4908805D
:1077A000EF490870EC49091F087048708870002480
:1077B00003E02046FFF7D4FF641C1E2CF9D310BD54
:1077C000FFB583B004460F4615460326E44800780B
:1077D00000280BD1002D06D10698002803D10220E5
:1077E000DF49087002E00120DD490870DC480078BC
:1077F000030002F0E2FF07FD05314E84BAD7FD0019
:10780000D8484069401C002808D00122120712699C
:1078100091B2D44A506902F0C0FE02E00120000794
:107820004069401E01210907096989B24843029055
:107830000120000700690004820C01200007006994
:1078400080B278430146029821DF0646002E02D11D
:107850000220C3490870D0E0384620DF0646002EDB
:1078600016D1002D11D1069800280AD120780428BD
:1078700003D10720BA4908700AE00520B84908700A
:1078800006E00420B649087002E00320B4490870FD
:10789000B3E0B4484069401C002808D00122120718
:1078A000126991B2AF4A506902F077FE02E00120FE
:1078B00000074069401E01210907096989B2484350
:1078C000012109070290096989B2794308462A46CD
:1078D000029921DF0646002E10D1069800280AD111
:1078E0002078042803D106209D49087006E0052071
:1078F0009B49087002E00420994908707DE099488E
:107900004069401C002808D001221207126991B278
:10791000944A506902F041FE02E0012000074069EC
:10792000401E01210907096989B24843A90040188E
:1079300061884018012109070290096989B27943D9
:10794000AA00891862888818069A029921DF0646DB
:10795000002E09D12078042803D106208049087020
:1079600002E005207E49087047E001200007006919
:1079700080B27843AB00C018029060888208216909
:10798000029821DF0646002E0BD1002D06D1069865
:10799000002803D107207249087002E006207049D0
:1079A00008702AE06F484069401C002808D0012276
:1079B0001207126991B26B4A506902F0EEFD02E0C3
:1079C000012000074069401E01210907096989B2A9
:1079D0004843019001200007006981B2019802F03C
:1079E000DCFD029020DF0646002E04D1072000E0D7
:1079F00002E05B49087000E000BF00BF304607B0FE
:107A0000F0BDF0B585B00F275348001F0078142152
:107A1000484351494418E5682078022804D00428D6
:107A200023D005286FD16FE0206903904B48008870
:107A300086026088801B0490039880190390A088B8
:107A400080194519012189020498884206D20498B8
:107A500082082846039921DF074605E0FF2201320C
:107A60002846039921DF074681E0A06800013E49CE
:107A7000401800890490A0680001401840890390D4
:107A8000A06800014018406802900298A84205D101
:107A90000399049848436188884202D0A06803286B
:107AA0000DD101200007006981B2284602F075FD62
:107AB0002A4909884618304620DF074622E001207F
:107AC0000007006981B2284602F067FD06460120E2
:107AD0000007006980B27043281A800801900120D5
:107AE0000007006980B2711C484361884919401A37
:107AF0008008009031462046009B019AFFF760FE07
:107B0000074600BF33E031E001200007006981B281
:107B1000284602F042FD0646A088411901200007D0
:107B2000006980B27043081A80080490A088401948
:107B30006188421801200007006980B2711C484327
:107B4000801A8008039031462046039B049AFFF771
:107B500037FE07460BE00000E4240020242000202C
:107B600027200020001000103C27002000BF00BF8D
:107B7000002F02D10120F9498870384605B0F0BDC8
:107B8000FFB581B0064617460024F44840781E2809
:107B900037D0F2480078F14949784018C4B21E2C19
:107BA00002DB20461E38C4B214206043EB49091D95
:107BB0000E5414206043401807611420604341189C
:107BC000029805C8CA60886014206043E34A121D09
:107BD0008018049941801420604380180A9981809C
:107BE0000025101F8078002805D1FFF70AFF054601
:107BF000112D00D10025D9484078401CD749487044
:107C000000E00425284605B0F0BD10B50024D34897
:107C10004078002807DDFFF7F4FE0446002C02D070
:107C2000112C00D10024204610BDF8B50446CB48E5
:107C3000007814214843C949091D0E5C081F0078CB
:107C400014214843C549091D401880680001C449F2
:107C50000D58C248007814214843C049091D4018F6
:107C60004088091F0090097814225143BB4A121D15
:107C700089180B69111F097814225143B74A121D44
:107C800089180846083022463146A847F8BDFEB597
:107C900005460026B148807801287DD10020AF49F3
:107CA0008870B0480078082811D1022D03D1002037
:107CB000AC49087002E00020AB490870FFF7A5FF4F
:107CC0000646002E02D03046FFF7AFFFFEBD022D64
:107CD00002D0032D79D174E0A048007814214843E4
:107CE0009E49091D4418A1480088401C9F490880EE
:107CF0002078022807D108460088800261888842DF
:107D000001DB012000E0002007462078052805D18E
:107D100094480078072801D1012000E0002002905B
:107D20002078042805D18F480078072801D1012048
:107D300000E000200190207804280BD18B480088B7
:107D400080026188884205DB86480078002801D1DE
:107D5000012000E0002000900298002807D101983F
:107D6000002804D10098002801D1002F1FD0002046
:107D70007C4908703046FFF758FF78490878FFF7CC
:107D8000EFFC00207949088074484078401E734910
:107D900048700846007800E01AE0401C0870084669
:107DA00000781E2803DB084600781E380870FFF7AD
:107DB0002CFF0646002E02D03046FFF736FF05E0C6
:107DC00003E00D20FFF731FF00E000BF00BF00BF60
:107DD00000BF7BE770B5FFF7DFFC00206449088037
:107DE00064484069401C002808D00122120712692B
:107DF00091B2604A506902F0D0FB02E00120000716
:107E00004069C01E01210907096989B248435A49DE
:107E1000086000205549088000BF0DE000210201E4
:107E20004F4B99500201D21811810201D218918151
:107E30000201D2185181401C0228EFD30820494981
:107E400008704C484069401C002808D001221207E5
:107E5000126991B2474A506902F09FFB02E001208B
:107E600000074069401E01210907096989B248439A
:107E7000064601200007006981B2304602F08DFB02
:107E8000054620DF0446002C04D1012033498870C8
:107E900035490870204670BDF8B504460D4600BF50
:107EA00031480078002801D10820F8BD00BF002C1F
:107EB00001D10E20F9E7002D01D10E20F5E7206851
:107EC000002801D10E20F0E7A088012109070969E7
:107ED00089B2884202DCA088102801DA0720E4E792
:107EE000E088002830D023484069401C002808D092
:107EF00001221207126991B21E4A506902F04DFB2D
:107F000002E0012000074069401E012109070969BC
:107F100089B24843E188A2885143174A12688918F8
:107F2000884211D3E088A1884843012109070969E3
:107F300089B288420ADDA18801221207126990B233
:107F400002F035FB002901D00720AEE72079800739
:107F5000800F002812D00720A7E70000E0240020AF
:107F60003C2700202720002026200020242000205D
:107F70001C2000200010001020200020FE48008857
:107F8000022801D1042090E7FB4800882860FB48C4
:107F900000686860F84909880901F94A8918686821
:107FA0004860F5490988090120685050A088F249C5
:107FB0000988090189180881E088EF4909880901C1
:107FC000891848810027A688E1884E4300BF781CA5
:107FD00087B201200007006980B2B04205D20120BB
:107FE0000007006980B2361A00E000260120000771
:107FF000006980B2E14909684018E0490860012041
:108000000007006980B2B042E1D9DB480088000176
:10801000DB4940188781D8480088401CD649088031
:10802000002042E73CB5034600BFD6480078002850
:1080300001D108203CBD00BF002B01D10E20F9E783
:10804000002A01D10E20F5E71868022805D2186829
:108050000001CB4C2058002801D10720EAE75C68DA
:10806000186801940090019C18680001C44D4019E3
:108070000089484320180190009800012C460019FF
:108080004089009C2401641924896043009C2401D8
:10809000641964680019019CA04201D80720C9E74F
:1080A000019C0098546010600020C3E7F8B50446B6
:1080B0000E4615461F4600BFB2480078002801D181
:1080C0000820F8BD00BF002E01D10E20F9E7002CDA
:1080D00001D10E20F5E72068022805D220680001B2
:1080E000A7490858002801D10720EAE720680001C5
:1080F000A3494018408921680901A14A89180989C2
:108100004843216809018918496840186168884214
:1081100001D80720D5E7002D06D020680001984936
:1081200040180089A84201DA0720CAE7E819216847
:108130000901934A89180989884201DD0720C0E7AF
:10814000304600F05CF9002804D0384600F057F9BA
:10815000002801D11020B4E7606800F050F9002831
:1081600001D11020ADE72B46324621460220009770
:10817000FFF706FDA5E7F8B504460E4615461F466F
:1081800000BF80480078002801D10820F8BD00BF5A
:10819000002E01D10E20F9E7002C01D10E20F5E7C9
:1081A0002068022805D22068000175490858002877
:1081B00001D10720EAE72068000171494018408991
:1081C000216809016E4A8918098948432168090113
:1081D0008918496840186168884201D80720D5E7A6
:1081E000002D06D020680001654940180089A8428A
:1081F00001DA0720CAE7E81921680901604A8918ED
:108200000989884201DD0720C0E7304600F0F7F811
:10821000002804D0384600F0F2F8002801D11020E0
:10822000B4E7606800F0EBF8002801D11020ADE75A
:108230002B463246214605200097FFF7A1FCA5E713
:10824000FFB581B00C4615461E4600BF4D4800786C
:10825000002802D1082005B0F0BD00BF002C01D1DC
:108260000E20F8E70198002801D10E20F3E72068DE
:10827000022805D22068000141490858002801D190
:108280000720E8E7206800013D494018408921683F
:1082900009013B4A8918098948432168090189185D
:1082A000496840186168884201D80720D3E7002D4B
:1082B00006D020680001324940180089A84201DA3E
:1082C0000720C8E7A819216809012D4A89180989DA
:1082D000884201DD0720BEE7019800F090F80028F1
:1082E00004D0304600F08BF8002801D11020B2E70E
:1082F000606800F084F8002801D11020ABE76068C6
:1083000081192A46019802F0E7F8009520680001DB
:108310001B490F58002203212046019BB84700202B
:1083200099E7F8B504460D4600BF164800780028C6
:1083300001D10820F8BD00BF002C01D10E20F9E7C3
:108340002068022805D2206800010D49085800283D
:1083500001D10720EEE72068000109494018408953
:1083600021680901064A89180989484321680901D9
:1083700089184968401807E01C20002020200020B0
:108380003C270020262000206168884201D8072071
:10839000D0E7606800F033F8002801D11020C9E769
:1083A00023681B011A4FDB1962685B68D01A2268C8
:1083B00012013B46D218118902F0EFF8002901D0D2
:1083C0000720B7E700202B460246214600900420F4
:1083D000FFF7D6FB06463046ACE7014600BF0D4826
:1083E0000078002801D10820704700BF002901D182
:1083F0000E20F9E70848407808600020F4E70146BD
:108400008807800F002801D1012070470020FCE779
:108410003C27002026200020E0240020F7B584B06F
:1084200004460F4606980678B01C1F2803DC6078C7
:10843000801C1F2802DD0C2007B0F0BD1F20801B10
:10844000801E85B20295B11C781802A97DDF0390C9
:108450000398002801D00398EEE72078022808D17D
:1084600068460089A84204DC092001906846058915
:108470000BE0082001906078002804D06078A842C2
:1084800001DC657801E068460589681CC2B23046A7
:10849000711CCEB23A543046721CD6B2019939548E
:1084A00006980178A81C0818C1B20698017000202F
:1084B000C2E7F8B505460C462078001D1F2801DDEF
:1084C0000C20F8BD684679DF0646002E01D0304604
:1084D000F7E703212278501C2070A9541921227833
:1084E000501C2070A954207841196846008800F07B
:1084F0008AFA2178401820700020E2E7F8B5054696
:108500000F4616461C466868002801D10720F8BDB2
:108510002078801C298840181F2801DD0C20F6E7F0
:108520002878401CC1B22278501C2070B1542178A8
:10853000481C207077542A8823789819696801F0BC
:10854000CBFF20782978401820700020DFE730B575
:1085500003461078C01C1F2801DD0C2030BD02240A
:108560001578681C10704C550A241578681C10701A
:108570004C551578681C10704B550020EEE7FFB580
:1085800087B006461D46109C002006902078059076
:10859000002747E0B900706841180A8868460281E0
:1085A00049884181002203A902A865DF049004984C
:1085B000002802D004980BB0F0BD6846017B0998F2
:1085C00081422ED10698002801D0002000E0022030
:1085D000019020786946097B4118019808181F28E6
:1085E00001DD0C20E7E70698002809D12078401C1F
:1085F00020702278511C08982170A8540120069000
:108600002078421903A902A865DF04900498002885
:1086100001D00498CFE720786946097B4018207084
:1086200000BF7F1C3088B842B4DC0698002806D012
:1086300021780598401C081AC1B2059829540020D9
:10864000B9E7FFB581B0074615460A9E009602229B
:108650003846049B0299FFF792FF0446002C02D093
:10866000204605B0F0BD0096102229463846049BEE
:10867000FFF785FF0446002C01D02046F1E70020DB
:10868000EFE701460888062808DB08881922D2018E
:10869000904205DD0888E04A904201D007207047EB
:1086A0004888062808DB48881922D201904205DD57
:1086B0004888D94A904201D00720F0E70888D64A76
:1086C000904208D04888904205D008884A88904255
:1086D00001DD0720E3E70020E1E7F8B506460D4697
:1086E00014462078801D1F2801D90C20F8BD304683
:1086F000FFF7C7FF0746002F01D03846F6E70521F0
:108700002278501C2070A95412212278501C20700D
:10871000A95422785119308800F075F92178401851
:10872000207022785119708800F06DF92178401876
:1087300020700020DAE7F8B505460E461446287981
:10874000801CC7B22078801CC0191F2801DD0C20B6
:10875000F8BD781CC1B22278501C2070B154FF21A2
:108760002278501C2070B15422789119288800F08A
:108770004AF9217840182070A88800280EDDA868E2
:10878000002801D10720E3E7AA8823789819A9686F
:1087900001F0A2FE20782979401820700020D7E748
:1087A000FEB507460E461446386B002801D1072057
:1087B000FEBD0020019032E0396B0C22019850433D
:1087C0000D182879801CC0B200900098401CC1B2DE
:1087D0002278501C2070B15416212278501C207031
:1087E000B15422789119288800F00DF921784018A9
:1087F0002070A88800280EDDA868002801D1072075
:10880000D6E7AA8823789819A96801F065FE207830
:108810002979401820700198401CC0B20190342082
:10882000C15D01988142C7DC0020C1E7F8B504466C
:108830000F4616460025002030702078002809D009
:10884000324639462046FFF7E9FD0546002D01D0A6
:108850002846F8BDA078002808D031463846FFF7F2
:1088600028FE0546002D01D02846F2E7A088002802
:108870000ADD33463A460121201DFFF73FFE05463B
:10888000002D01D02846E4E7E06800280BD0002046
:10889000E168085632463946FFF759FE0546002D75
:1088A00001D02846D5E7208A00280CDD3B46062269
:1088B0000221204610300096FFF7C3FE0546002D2A
:1088C00001D02846C5E7208B00280CDD3B46072257
:1088D0000321204618300096FFF7B3FE0546002D11
:1088E00001D02846B5E7208C00280CDD3B46152238
:1088F0001421204620300096FFF7A3FE0546002DE8
:1089000001D02846A5E7A06A002809D0324639469A
:10891000A06AFFF7E2FE0546002D01D0284698E741
:10892000E06A002809D032463946E06AFFF703FFC3
:108930000546002D01D028468BE73420005D002835
:1089400009DD324639462046FFF72AFF0546002D4D
:1089500001D028467DE728467BE701468888002825
:1089600008D08868002805D0886800780422104064
:10897000002801D1072070470020FCE701468888C5
:10898000002801DD072070470020FCE7F3B593B015
:108990000D460021129111911398002814D01398BC
:1089A000FFF7DBFF0446002C02D0204615B0F0BDD7
:1089B00012AA09A91398FFF739FF0446002C01D029
:1089C0002046F3E709AE00E00026002D13D028462C
:1089D000FFF7D4FF0446002C01D02046E6E711AA99
:1089E00001A92846FFF722FF0446002C01D02046AB
:1089F000DCE701AF00E0002710A803793A46017ACE
:108A0000304672DFD2E702460A70FF2000021040B3
:108A10000012487002207047FFFF000030B5034687
:108A2000481CC004040C10468507AD0F002D01D171
:108A3000012500E00025002D01D1072030BD7A4836
:108A400002601019794D28600020794D2870794D09
:108A5000287079480380794801800020EEE7F7B557
:108A600084B00C467448008884426BDC744D00204E
:108A7000039000F0A4F802900298012814D003A8F3
:108A80002EDF0746022F01D172B60CE000BF01971E
:108A9000019F002F06D000BF6AA259210198FDF75F
:108AA0003DFC00BF00BF00BF6148007800F0B1F896
:108AB00060490978884206D05D480578007800F062
:108AC000A8F85B4908700298012814D062B668467D
:108AD000007B2FDF0746022F0CD000BF0197019FBC
:108AE000002F06D000BF57A261210198FDF716FCA8
:108AF00000BF00BF00BF5248854221D0E9004A4A6A
:108B00000698126850500498002811D0002C0FDDF0
:108B1000494909886943454A1268881822460499D8
:108B200001F0DAFCE800404909684018848005E05B
:108B30000020E9003C4A126889188880002600E07D
:108B4000042600E00926304607B0F0BDF8B505461A
:108B50000E461746052000903548007835490978BB
:108B600088421BD033480478007800F052F831492D
:108B700008703148008860432C4909684018286013
:108B8000E00029490968401880883080E0002649C3
:108B90000968085838600020009000BF0098F8BDB0
:108BA0000EB504E068468188009A029890476A46AC
:108BB00001A902A8FFF7CAFF0028F3D00EBD10B527
:108BC0002D484068C105C90D002920D00A46103A39
:108BD00050B200280DDA284B1C330407240F083C40
:108BE000A408A4001B598407E40EE3401B069B0F56
:108BF0000BE0224B032424021B198408A4001B59F8
:108C00008407E40EE3401B069B0FD8B210BD04207E
:108C1000FCE7014609480088814201DA481C00E06F
:108C20000020C0B270470000282000202C20002027
:108C3000312000203020002032200020342000206D
:108C4000FFFF00002E2E5C6C69625C6E726635312F
:108C50003832325C536F757263655C6170705F634C
:108C60006F6D6D6F6E5C6170705F73636865647566
:108C70006C65722E6300000000ED00E000E100E092
:108C800010B5002819DAFB4A03071B0F083B9B08A5
:108C90009B00D2588307DC0EFF23A3409A438B0727
:108CA0001B0E8407E40EA3401A43F24B0407240F63
:108CB000083CA408A4001A5118E0EF4A03231B0241
:108CC000D21883089B00D2588307DC0EFF23A340F1
:108CD0009A438B071B0E8407E40EA3401A43E64B0E
:108CE000032424021B198408A4001A5110BD10B5D6
:108CF0000446E248846003211120FFF7C1FF10BD44
:108D000010B501200004DE494860DD494039486063
:108D1000112000F0F5FC112000F0E4FC0120D949FD
:108D200008602F20FDF720FA0120D749087010BDF8
:108D300010B5112001218140CF4A8032116000BF5F
:108D400001200004CE498860CD4940398860012067
:108D5000CC4948602F20FDF707FA0120C9498860F7
:108D60000020CA4908602F20FDF7FEF90020C649FF
:108D7000087010BDF0B5024624205043C44B1B6858
:108D8000C118C4480068401C002802D1C1480260D4
:108D900059E0C0484B68006824246043BC4C2468F8
:108DA00000194068834217D8BA4800682423584302
:108DB000B74B1B68C01840684B68C31AB5480068B9
:108DC00024246043B24C246800194360B148006811
:108DD0000862B048026036E04B68AE4D2C682868E7
:108DE0000DE024254543AA4E3668AD196D685B1B1E
:108DF000044624254543A64E3668AD19286A451C0D
:108E0000002D07D024254543A14E3668AD196D6865
:108E10009D42E6D3451C002D0CD0242545439C4E95
:108E20003668AD196D68EE1A24254543984F3F68A2
:108E3000ED196E604B60086224256543944E3668D8
:108E4000AD192A6200BFF0BDF8B506469148056825
:108E50002C4609E0B44200D109E0254624206043B5
:108E60008B4909684018046A601C0028F2D100BFD1
:108E7000601C002800D1F8BDA54210D185480068CB
:108E800024214843824909684018006A81490860E2
:108E900008460068401C002801D1FFF749FF242044
:108EA00060437B490968401847682420604378493B
:108EB00009684018016A24206843754A12688018BE
:108EC000016224206843724909684018046A601CE2
:108ED00000280CD0242060436D4909684018406880
:108EE000C119242060436A4A12688018416000BF9B
:108EF000C1E710B5112000F0FCFB10BD10B5142027
:108F000000F0F7FB10BD70B5044663480068002808
:108F100013D0614AE169A06912689047054600BF15
:108F20002E46002E07D000BF5CA2FF2164313046E0
:108F3000FDF7F4F900BF00BF02E0A169E0698847CE
:108F400070BDF8B553480068401C00283AD000278F
:108F500000F008FC04464D480168204600F005FC7E
:108F600006464C48056811E02420684348490968D2
:108F700044186068B04200D90BE06068361A606837
:108F8000C719256A2046FFF7BEFF00BF681C0028EE
:108F9000EAD100BF4D4800784D490978884209D18F
:108FA0004B480078401CC0B249490870022801D1E2
:108FB0000020087046480078800046490F50FFF7AF
:108FC0009DFF00BFF8BD014640480078404A127836
:108FD00090421DD03D480078401C3C4A107010461D
:108FE0000078022801D100201070384800788000F5
:108FF000384A10580860254A086812688018234AC1
:109000001060104600680002000A106001207047DE
:109010000020086000BFFAE7FEB51E480068019016
:109020002D480078009076E00098C0002B49096830
:10903000441825786BE01820684361680F18681C95
:10904000C5B2A078A84200D100253878022802D005
:10905000032859D144E02421786848430C49096821
:109060004618307D002804D07868FFF7EDFE002018
:1090700030754AE01CED00E000E100E00015014021
:109080004013014000100140602000204C200020CF
:109090003C200020482000205C2000202E2E5C6C0C
:1090A00069625C6E726635313832325C536F75724C
:1090B00063655C6170705F636F6D6D6F6E5C617036
:1090C000705F74696D65722E630000005820002087
:1090D0005920002050200020402000204420002063
:1090E0000CE0F849096824225143F74A12688818AD
:1090F00000210175F34A016A116000BFF148006860
:10910000401C0028EDD100E000BF00BF00BF607828
:10911000A84290D100BF0098411EC9B2009100281A
:1091200082D1E84801680198814201D00120FEBD4A
:109130000020FCE7F0B50346002426E0E14E366847
:1091400024277E43E04F3F68F01946689E4203D9CA
:109150004668F61A46601DE046689B1B466834194F
:10916000002646600675D74E3568D64F066A3E60C3
:109170000669002E08D00E193602360A8660066986
:10918000C66016680662156000BFCE480068401CC5
:109190000028D3D100BFF0BDFEB50746C94800681E
:1091A0000290CA48007801906BE00198C000C8495D
:1091B000096845185DE0781C002807D03E46242049
:1091C0007043C14909684418276A23E029781823A5
:1091D00059436A6850182978491C29702978AA7857
:1091E000914201D100212970466824217143B64A79
:1091F00012688C180178012902D1217D002900D044
:1092000037E08168A160C168E1600169216141695D
:10921000E16100BFAF49A0680968401A0002000A76
:10922000AD49884208D2AB49A068096800F09DFAB0
:10923000E1684018606011E0A648A168006800F08D
:1092400094FA0090E1680098814204D9E16800989E
:10925000081A606001E00020606000BF0020A0608C
:10926000E06001202075801E20623046FFF782FDFD
:1092700000BF781C00289ED12878697888429AD14E
:1092800000BF0198411EC9B2019100288DD18D48BF
:1092900001680298814201D00120FEBD0020FCE758
:1092A000FEB588480068401C002834D08548006816
:1092B00024214843844909684018456800F052FA5F
:1092C0000190844804682146019800F04EFAC61CBB
:1092D00082480078002801D1FFF712FDAE4201D28A
:1092E000284600E0304604192402240A20467C491E
:1092F000086000BF00F036FA00900199009800F075
:1093000034FAC71C2046019900F02FFA874201D990
:10931000FFF7EFFD01E0FFF70BFDFEBDFEB50020FE
:10932000C04301906B480468664807686846FFF7C9
:109330004AFE0546FFF770FE0646002D05D001AA3D
:1093400021460098FFF7F6FE01260198FFF724FF5B
:10935000002800D00126002E02D03846FFF7A0FFDB
:10936000FEBD4170704770B502460B465078411CF7
:109370009078884200D100211078884201D10020E5
:1093800070BD196050781826704355682C18204617
:10939000F6E7FFB581B005460E461746E9004C4A90
:1093A000126888186946FFF7DEFF0446002C02D1D8
:1093B000042005B0F0BD01202070666000F0D2F9F5
:1093C000A060E760049820610A986061E900404A63
:1093D000126888180099FFF7C4FFFFF78FFD00207F
:1093E000E7E7F8B504460E46E100394A12688818E6
:1093F0006946FFF7B8FF0546002D01D10420F8BDEE
:10940000022028706E60E100314A126888180099C5
:10941000FFF7A7FFFFF772FD0020F0E738B504461D
:10942000E1002B4A126888186946FFF79CFF054641
:10943000002D01D1042038BD03202870001F686072
:10944000E100234A126888180099FFF78AFFFFF7A6
:1094500055FD0020EFE710B50020224908600021EB
:10946000204841608160C16000201E494039086089
:109470004860FFF766FD10BD10B5FFF74FFF10BD48
:10948000FFB581B00E4617461C4620468107890F5E
:10949000002901D1012100E00021002902D107208B
:1094A00005B0F0BD002C01D10720F9E7FFF740FC23
:1094B0000D490A9808600D480670034804600025AD
:1094C00023E00000482000203C2000204020002015
:1094D000442000204C200020FFFF7F00602000205F
:1094E00040150140401101405C2000203820002040
:1094F0000021242068439F4A1268115424206843A5
:109500009C4A1268801801756D1CB542F0DB24205E
:10951000704304190320984908709848046018346F
:1095200000250CE0E900954A1268881800210170B6
:10953000417087704460182179430C196D1C032D0C
:10954000F0DB0020C0438E49086000208D49087080
:109550008D490870142000F0D3F803211420FFF780
:109560008FFB142000F0BEF80198FFF7C0FB00F05D
:10957000F9F886490860002092E770B503460C466A
:109580007C480068002801D1082070BD002A01D164
:109590000720FAE7002B01D10720F6E700211CE0A5
:1095A00024204843734D2D68285C002814D10125E0
:1095B000242048436F4E36683554242048436D4D6F
:1095C0002D6840194470242048436A4D2D68401985
:1095D000826119600020D8E7491C6D4800788142FB
:1095E000DEDB0420D1E710B500F092F8012802D0AC
:1095F000032804D101E0002403E0012401E0022457
:1096000000BF00BF204610BDFEB504460D461646FD
:1096100058480068002801D10820FEBD5C48007849
:10962000844201D2052D01D20720F6E724206043B1
:1096300050490968085C012801D00820EDE7242082
:1096400060434C49096840184078012801D12846F8
:1096500000E000200746FFF7C6FF3B462A462146AA
:1096600000960190FFF795FED7E770B50446414894
:109670000068002801D1082070BD45480078844268
:1096800001D30720F8E7242060433A490968085CC1
:10969000012801D00820EFE7FFF7A5FF0546214686
:1096A000FFF79FFEE8E710B532480068002801D1B7
:1096B000082010BDFFF797FF0446FFF7AFFEF8E75D
:1096C00010B5044600F04EF82060002010BD70B5C3
:1096D00005460E4614463146284600F046F82060FE
:1096E000002070BDC206D20E01219140294A1160AE
:1096F0007047C206D20E01219140274A116070477F
:10970000C206D20E01219140234A80321160704777
:1097100010B522484068C105C90D002920D00A466D
:10972000103A50B200280DDA1C4B1C330407240FEA
:10973000083CA408A4001B598407E40EE3401B0660
:109740009B0F0BE0134B032424021B198408A40075
:109750001B598407E40EE3401B069B0FD8B210BDD3
:109760000420FCE70E48406870470246501A000289
:10977000000A70473C2000204020002044200020A8
:109780004820002058200020592000204C20002094
:109790003820002000E100E000E200E000ED00E001
:1097A0000015014001464888B74A1288904206DBFE
:1097B0004888B54A5288904201DC01207047002059
:1097C000FCE738B50546B1480088B14988423BD02E
:1097D000B0480078401CAF490870AF48007B09785A
:1097E00088420FDBA849A948008875DF0446002C91
:1097F00007D0A9488069002803D0A748816920467E
:10980000884721E00020A3490870A348007C002875
:109810000FD03B219D48008876DF0446002C07D0FE
:109820009D488069002803D09B488169204688476D
:1098300000BF99484069002806D000200090964853
:1098400041696846884700BF38BD70B505461C228F
:1098500029469148FCF7A8FC002090490870286828
:1098600000280BD008228848296800F035FE864879
:109870007ADF0446002C08D0204670BD82487BDF8A
:109880000446002C01D02046F7E70020C0437F4962
:10989000088000207F490870814A00218148FFF735
:1098A0006CFEEAE710B57F480068FFF7DEFE10BDEA
:1098B00038B57D48FFF776FF002829D17748007832
:1098C00000280AD074484069002820D00020009069
:1098D000714841696846884719E06E480078002859
:1098E00002D16D48456801E06B4885680022294631
:1098F0006C480068FFF788FE0446002C07D06648D5
:109900008069002803D064488169204688470AE0BE
:1099100061484069002806D0012000905E484169F6
:109920006846884700BF00205C49087038BD10B504
:109930000446A08855490880082221460E315A481D
:1099400000F0CAFD0020534908705348C089002820
:1099500001D1FFF7ADFF10BD70B505460020C04333
:109960004A49088000204B4908704E480068FFF7BC
:109970007CFE0446002C07D047488069002803D0AD
:10998000454881692046884770BD70B50546AC1DC5
:1099900020884149C989884220D1208B02281DD1C5
:1099A00000BF00BFA17EE27E120211430846C1073C
:1099B000C90F002902D0FFF77BFF0FE0394800688C
:1099C000FFF753FE0646002E07D033488069002873
:1099D00003D0314881693046884700BF70BD10B55B
:1099E00004460822A11D304800F076FDFFF760FF15
:1099F00010BD10B504462088102806D0112808D0C4
:109A000012280ED0502810D107E02046FFF78FFF14
:109A10000CE02046FFF7A0FF08E02046FFF7B5FF67
:109A200004E02046FFF7DBFF00E000BF00BF10BDF1
:109A300038B5044608222146134800F04DFD12486F
:109A40007ADF0546002D1CD11748FFF7ABFE002832
:109A50000BD10120114908700B490C48008875DFB3
:109A6000054601200B4908700BE00B4840690028AF
:109A700006D001200090084841696846884700BF29
:109A80000025284638BD0000642000206E200020FC
:109A9000FFFF00006C2000205C2700207C200020BD
:109AA000C3970100782000207020002070B5064682
:109AB0000C46154629462046FCF73EFC70BDF8B51D
:109AC0005A480078002800D1F8BD5948006800289D
:109AD00001D1012000E0002005465648006800281A
:109AE00001D1012000E00020064600BF002D14D166
:109AF000684651DF0446052C01D101250CE0002CFD
:109B000006D000BF4CA269212046FCF707FC03E009
:109B1000474900980968884700BF002E1AD1544869
:109B20000088009069465348006861DF0446052CB0
:109B300001D101260DE0002C06D000BF3EA28021FD
:109B40002046FCF7EBFB04E04A4800683949096805
:109B5000884700BF002D02D0002E00D000E0C5E7EE
:109B600000BF00BFB0E7FFB581B00C4616461F46E8
:109B7000002C02D1072005B0F0BD20468107890FD7
:109B8000002901D1012100E00021002901D1072095
:109B9000F1E738480460364806803748076037499F
:109BA000019810DF0546002D01D02846E3E701208B
:109BB0001E490870162026DFDDE710B511DF0446C8
:109BC000002C01D0012000E0002018490870204638
:109BD00010BD0146002901D10E20704715480160D3
:109BE0000020FAE70146002901D10E2070471048F5
:109BF00001600020FAE770B51F480068002811D006
:109C00001D4800688047044600BF2546002D07D048
:109C100000BF09A2FF2133312846FCF77FFB00BFBC
:109C200000BF01E0FFF74BFF70BD00008A2000205D
:109C3000902000208C2000202E2E5C6C69625C6ECF
:109C4000726635313832325C536F757263655C739E
:109C5000645F636F6D6D6F6E5C736F667464657661
:109C60006963655F68616E646C65722E63000000F5
:109C7000882000208420002080200020AD9A010050
:109C8000F8B504460D4694480068002813D0EAB29F
:109C90002178914B60681B689847064600BF37469D
:109CA000002F06D000BF8DA228213846FCF736FBD6
:109CB00000BF00BF0CE0012D04D1207801216268B3
:109CC000904705E0002D03D120780021626890477D
:109CD000F8BDF8B5074669468C48007800F0F7FAF9
:109CE0000646002E00D0F8BD002534E0E800884983
:109CF000096844188748006822780121914008408B
:109D000000280FD0606800280CD06078012804D1AA
:109D100000212046FFF7B4FF1BE001212046FFF79A
:109D2000AFFF16E07B48406822780121914008404F
:109D300000280ED0606800280BD06078012804D17C
:109D400001212046FFF79CFF03E000212046FFF79A
:109D500097FF681CC5B2704800788542C6DB00BF1B
:109D6000C1E770B504460D466C480068FFF77DFCFE
:109D70000646002E00D070BD66484460056020464F
:109D8000284302466648016864480068FFF73CFCC7
:109D9000064600BFEFE7FFB583B006460C46174600
:109DA000052F02D2072007B0F0BD594806605A4877
:109DB00004705B480760484906980860002515E074
:109DC000E100881902780092817801910199890057
:109DD0000522120707231B02D318009A92009950FC
:109DE00000BF0278012191400D4300BF2046611E53
:109DF000CCB20028E4D14B4B2A462946434800F018
:109E00008FF902900298002801D00298CBE7464AC9
:109E100000214248FFF7B1FBC5E710B53C48006898
:109E2000002801D1082010BD3848007800F0BDF9A5
:109E3000F9E710B536480068002801D1082010BDA8
:109E40003248007800F022FA0446002C01D0204667
:109E5000F5E732480068FFF708FCF0E7F8B506467A
:109E60000C462D480078864201DD0720F8BDF00041
:109E700027490968451826480068002801D10820AC
:109E8000F4E769462148007800F021FA0746002FE0
:109E900001D03846EAE7687800280CD12978009884
:109EA000C840C007C00F002802D00020207011E079
:109EB000012020700EE0687801280BD129780098E5
:109EC000C840C007C00F002802D00120207001E068
:109ED000002020700020C9E7A02000202E2E5C6CFE
:109EE00069625C6E726635313832325C536F7572FE
:109EF00063655C6170705F636F6D6D6F6E5C6170E8
:109F0000705F627574746F6E2E630000A420002071
:109F100094200020AC20002098200020A8200020C1
:109F20009C200020639D0100D39C0100F0B50246F7
:109F30000C46002037E001238340194623460B409E
:109F4000002B2FD0D5680D40002D05D101235B04D7
:109F5000D5680D43D56004E003231B04D5688D4309
:109F6000D56005252D0707263602AD198600AD59A7
:109F700003263604B5430526360707273F02F619A0
:109F80008700F55105252D0707263602AD198600F5
:109F9000AD591D430526360707273F02F6198700EE
:109FA000F55100BF401C2028C5D3F0BDF0B585B0E9
:109FB000EF4805690020EF49C86300263FE0142000
:109FC0007043ED49096844180120B040EB49096825
:109FD0000840002831D0E068C0436840216808404C
:109FE000074639462046FFF7A1FFE148006968406F
:109FF0000390039800280ED003980543E068C043FF
:10A00000684021680840009020460099FFF78EFFC5
:10A010000098074300BFA068A843384001906068DB
:10A02000284038400290019902980843002803D044
:10A03000226901990298904700BF701CC6B2D048AF
:10A0400000788642BBDB05B0F0BD10B501460020AC
:10A0500029E014224A43C84B1B689A5801238340C5
:10A060001A40002A1ED00522120707231B02D2180D
:10A070008300D25803231B049A4305231B0707249C
:10A0800024021B1984001A510522120707231B0200
:10A09000D2188300D25805231B07072424021B195A
:10A0A00084001A51401C2028D3D310BD70B505463A
:10A0B0000C46002C01D1072070BD20468107890F76
:10A0C000002901D1012100E00021002901D1072050
:10A0D000F2E7A9480460AB4805700020A849087061
:10A0E000A6490860A7480078142250430146A248B8
:10A0F000006800F050FA0020C043A34988600620A1
:10A1000001218140A14A116000BF012100F0F9F84E
:10A110000620012181409E4A116000BF0020CBE74C
:10A12000F8B504460D4616461F46934800680028B9
:10A1300001D10820F8BD002F01D10720FAE790488F
:10A14000007890490978884201DB0420F2E728462C
:10A1500030438B49097814225143874A1268505082
:10A1600087480078142148438349096840184560AE
:10A1700083480078142148437F4909684018866065
:10A180007F480078142148437B49096840180761DB
:10A190007B48007820707A480078401C7849087025
:10A1A0002078FFF752FF0020C4E7F0B5024672485E
:10A1B0000068002801D10820F0BD71480078824273
:10A1C00001DB0720F8E700206A4BD8636848046980
:10A1D0006A480068002802D158066B4B586001207D
:10A1E0009040664B1B681843644B18600023142092
:10A1F0005043614D2D684019C360002142E00123A6
:10A200008B401846142353435B4D2D68EB58034095
:10A21000002B36D025460540002D02D003231B0419
:10A220000EE001235B0414255543534E3668AD19E7
:10A23000ED680543142656434F4F3F68F619F56005
:10A2400005252D0707263602AD198E00AD590326C8
:10A250003604B5430526360707273F02F6198F0057
:10A26000F55105252D0707263602AD198E00AD598B
:10A270001D430526360707273F02F6198F00F551C3
:10A2800000BF491C2029BAD3002095E710B5044629
:10A2900039480068002801D1082010BD38480078EE
:10A2A000844201DB0720F8E72046FFF7CEFE0120BD
:10A2B000A0403249096881433048016000680028A5
:10A2C00003D10120C007304988600020E5E710B5C0
:10A2D000024629480068002801D1082010BD2848FE
:10A2E0000078824201DB0720F8E714205043224C1B
:10A2F000246803191E4800691C682040086000207B
:10A30000ECE710B5002819DA224A03071B0F083BB7
:10A310009B089B00D2588307DC0EFF23A3409A437F
:10A320008B071B0E8407E40EA3401A43194B040746
:10A33000240F083CA408A4001A5118E0144A03236F
:10A340001B02D21883089B00D2588307DC0EFF2320
:10A35000A3409A438B071B0E8407E40EA3401A43C5
:10A360000B4B032424021B198408A4001A5110BDAE
:10A370000005005040610040BC200020B4200020B7
:10A38000B9200020B82000200063004080E200E0F7
:10A3900000E100E01CED00E001B505E00098401E82
:10A3A00000900348FBF7F0FE00980028F6D108BDA6
:10A3B000E703000070B504460D462021204600F05A
:10A3C000EAF865603C202074002070BD38B5044672
:10A3D0006B4601220F212046FCF75AFD002802D0CF
:10A3E0000020C04338BD6B46012220212046FCF7E7
:10A3F0004FFD694608789821084300906B4601227A
:10A4000020212046FCF77DFD002802D00120C0431A
:10A41000E8E7102000906B46012225212046FCF73A
:10A4200070FD002802D00220C043DBE768460078B8
:10A430003F2802D00320C043D4E70020D2E77CB5F8
:10A4400004460D466B46062228212046FCF720FDD7
:10A45000002802D00220C0437CBD69460020085E6F
:10A4600000F06FF9606169460220085E00F069F94A
:10A47000A06169460420085E00F063F9E061002DE8
:10A4800004D0E269A16960692B4607C30020E3E7B5
:10A490007047000030B5441C03E00178401C0029DF
:10A4A0000DD08107F9D10B4BDD0104C8D11A9143BE
:10A4B0002940FAD0001B0A0603D0C01E30BD001B85
:10A4C00030BD0A0401D0801E30BD0902FCD0401E00
:10A4D00030BD000001010101F8B5042A2CD3830727
:10A4E00012D00B78491C0370401C521E83070BD0FE
:10A4F0000B78491C0370401C521E830704D00B7854
:10A50000491C0370401C521E8B079B0F05D0C91AB3
:10A51000DF002023DE1B08C90AE0FBF745FEF8BD7B
:10A520001D4608C9FD401C46B4402C4310C0121FF4
:10A53000042AF5D2F308C91A521EF0D40B78491C2C
:10A540000370401C521EEAD40B78491C0370401C57
:10A55000012AE4D409780170F8BD01E004C0091FA4
:10A560000429FBD28B0701D50280801CC90700D0CB
:10A570000270704700290BD0C30702D00270401C44
:10A58000491E022904D3830702D50280801C891E3C
:10A59000E3E70022EEE70022DFE7002203098B4217
:10A5A0002CD3030A8B4211D300239C464EE0034672
:10A5B0000B433CD4002243088B4231D303098B4226
:10A5C0001CD3030A8B4201D394463FE0C3098B425C
:10A5D00001D3CB01C01A524183098B4201D38B01B5
:10A5E000C01A524143098B4201D34B01C01A524158
:10A5F00003098B4201D30B01C01A5241C3088B429D
:10A6000001D3CB00C01A524183088B4201D38B0087
:10A61000C01A524143088B4201D34B00C01A524129
:10A62000411A00D201465241104670475DE0CA0F00
:10A6300000D04942031000D34042534000229C46C0
:10A6400003098B422DD3030A8B4212D3FC228901CA
:10A6500012BA030A8B420CD3890192118B4208D3A0
:10A66000890192118B4204D389013AD0921100E002
:10A670008909C3098B4201D3CB01C01A5241830916
:10A680008B4201D38B01C01A524143098B4201D343
:10A690004B01C01A524103098B4201D30B01C01A6E
:10A6A0005241C3088B4201D3CB00C01A52418308E8
:10A6B0008B4201D38B00C01A5241D9D243088B423E
:10A6C00001D34B00C01A5241411A00D201466346E1
:10A6D00052415B10104601D34042002B00D5494245
:10A6E000704763465B1000D3404201B50020C0466E
:10A6F000C04602BD7047704770471F22030C02D14D
:10A700000F2200041CD0030E01D10002083A030FEF
:10A7100001D10001121F830F01D18000921E002879
:10A7200001DB4000521ED2055118021251181922A5
:10A73000904004D3491C002801D14908490008462B
:10A740007047C10FC90700D0404201229207114350
:10A75000D3E701218907D0E7754600F023F8AE461C
:10A76000050069465346C008C000854618B020B5AC
:10A77000FBF74AFD60BC00274908B6460026C0C565
:10A78000C0C5C0C5C0C5C0C5C0C5C0C5C0C5403DA9
:10A7900049008D4670470446C046C0462046FBF738
:10A7A000DCFC000000487047782700200149182091
:10A7B000ABBEFEE726000200704730B47446641E4C
:10A7C0002578641CAB4204D3635D5B00E31830BCA6
:10A7D00018471D46F8E700000F18010086EE3EBB43
:10A7E00008AFD4F1ADD89B8200001EF20CA8010086
:10A7F00000200020C000000004610100CCA801007E
:10A80000C020002018170000206101000024F4007F
:10A81000000000000000FFFF00000000000000003A
:10A820000000000000000000000000000000000028
:10A830000000000000000000000000000000000018
:10A840000000000000000000000000000000000008
:10A8500000000000000000000000000000000000F8
:10A8600000000000000000000000000000000000E8
:10A8700000000000000000000000000000000000D8
:10A8800000000000000000000000000000000000C8
:10A8900000000000000000000000000000000000B8
:10A8A00000000000000000000000000000000000A8
:10A8B0000000000000000000000000000000000098
:0CA8C0000000000000000000000000008C
:04000005000160C1D5
:00000001FF
